:100000000C9418030C9440030C9440030C9440038C
:100010000C9440030C9440030C9440030C94400354
:100020000C9440030C9440030C9440030C94400344
:100030000C9440030C9440030C9440030C94400334
:100040000C9403150C9440030C9473150C944D15EB
:100050000C9440030C9440030C9440030C94400314
:100060000C94A5150C94400300000000003E5B4F6B
:100070005B3E3E6B4F6B3E1C3E7C3E1C183C7E3C08
:10008000181C577D571C1C5E7F5E1C00183C180016
:10009000FFE7C3E7FF0018241800FFE7DBE7FF30A6
:1000A000483A060E2629792926407F050507407F14
:1000B00005253F5A3CE73C5A7F3E1C1C08081C1C87
:1000C0003E7F14227F22145F5F005F5F06097F017D
:1000D0007F006689956A606060606094A2FFA29468
:1000E00008047E040810207E201008082A1C080836
:1000F0001C2A08081E101010100C1E0C1E0C303884
:100100003E3830060E3E0E06000000000000005F84
:1001100000000007000700147F147F14242A7F2AA0
:100120001223130864623649562050000807030062
:10013000001C2241000041221C002A1C7F1C2A08AE
:10014000083E080800807030000808080808000011
:1001500060600020100804023E5149453E00427F85
:10016000400072494949462141494D331814127FD4
:100170001027454545393C4A494931412111090774
:100180003649494936464949291E000014000000F5
:1001900040340000000814224114141414140041C7
:1001A00022140802015909063E415D594E7C121184
:1001B000127C7F494949363E414141227F414141BC
:1001C0003E7F494949417F090909013E4141517337
:1001D0007F0808087F00417F41002040413F017FA8
:1001E000081422417F404040407F021C027F7F0470
:1001F00008107F3E4141413E7F090909063E4151B9
:10020000215E7F09192946264949493203017F01A8
:10021000033F4040403F1F2040201F3F4038403FA9
:10022000631408146303047804036159494D4300BF
:100230007F4141410204081020004141417F0402F6
:10024000010204404040404000030708002054548D
:1002500078407F284444383844444428384444286B
:100260007F385454541800087E090218A4A49C78BE
:100270007F0804047800447D40002040403D007F1A
:100280001028440000417F40007C047804787C08FA
:100290000404783844444438FC18242418182424CE
:1002A00018FC7C08040408485454542404043F44B3
:1002B000243C4040207C1C2040201C3C4030403CE2
:1002C00044281028444C9090907C4464544C440042
:1002D00008364100000077000000413608000201A6
:1002E0000204023C2623263C1EA1A161123A404092
:1002F000207A38545455592155557941225454780F
:1003000042215554784020545579400C1E527212A7
:100310003955555559395454545939555454580030
:1003200000457C410002457D420001457C407D1234
:1003300011127DF0282528F07C5455450020545496
:100340007C547C0A097F4932494949323A44444441
:100350003A324A4848303A4141217A3A424020787C
:10036000009DA0A07D3D4242423D3D4040403D3C7D
:1003700024FF2424487E4943662B2FFC2F2BFF09A2
:1003800029F620C0887E0903205454794100004496
:100390007D413048484A32384040227A007A0A0A81
:1003A000727D0D19317D2629292F282629292926F4
:1003B00030484D4020380808080808080808382F39
:1003C00010C8ACBA2F102834FA00007B00000814C3
:1003D0002A142222142A14085500550055AA55AA99
:1003E00055AAFF55FF55FF000000FF00101010FF39
:1003F00000141414FF001010FF00FF1010F010F094
:10040000141414FC001414F700FF0000FF00FF1484
:1004100014F404FC141417101F10101F101F1414D0
:10042000141F00101010F0000000001F101010101A
:100430001F10101010F010000000FF10101010100E
:1004400010101010FF10000000FF140000FF00FF4C
:1004500000001F10170000FC04F4141417101714E8
:1004600014F404F40000FF00F7141414141414140A
:10047000F700F7141414171410101F101F1414147D
:10048000F4141010F010F000001F101F0000001FE7
:1004900014000000FC140000F010F01010FF10FF1A
:1004A000141414FF141010101F00000000F010FFAF
:1004B000FFFFFFFFF0F0F0F0F0FFFFFF0000000093
:1004C00000FFFF0F0F0F0F0F3844443844FC4A4A17
:1004D0004A347E02020606027E027E0263554941CC
:1004E000633844443C04407E201E2006027E020203
:1004F00099A5E7A5991C2A492A1C4C7201724C3017
:100500004A4D4D303048784830BC625A463D3E49ED
:100510004949007E0101017E2A2A2A2A2A44445F91
:10052000444440514A444040444A51400000FF0185
:1005300003E080FF000008086B6B08361236243693
:10054000060F090F060000181800000010100030F8
:1005500040FF0101001F01011E00191D1712003C80
:100560003C3C3C000000000004E010021C07123775
:1005700032292D29252B3900010310E110031D0715
:10058000062E2C292D2E2E373F0000021013800A34
:10059000298064022A040000007F2B040000009FD1
:1005A0000F0180961180FFB103012C2DB203012CA5
:1005B0002DB306012C2D012C2DB40107C003A2027E
:1005C00084C101C5C2020A00C3028A2AC4028AEE9B
:1005D000C5010E20003601C83A01050000000024C4
:1005E0000027002A000000000800020100000304A8
:1005F0000700000000000000000102040810204075
:1006000080010204081020010204081020000000EC
:1006100000250028002B0004040404040404040240
:10062000020202020203030303030300C016781B45
:1006300011241FBECFEFD8E0DEBFCDBF23E0ACE773
:10064000B1E001C01D92A130B207E1F711E0A0E0D6
:10065000B1E0E2ECFCE302C005900D92AC37B107CB
:10066000D9F713E0C7E1D3E004C02197FE010E944F
:100670003F1CC631D107C9F70E94B0170C94541E15
:100680000C94000090E0FC01EB51FA4F2491FC0126
:10069000E750FA4F3491FC01E95EF94FE491EE2303
:1006A000C9F0222339F0233001F1A8F4213019F1E7
:1006B000223029F1F0E0EE0FFF1FE35FF94FA59123
:1006C000B4918FB7F894EC91611126C030953E2318
:1006D0003C938FBF08952730A9F02830C9F024300B
:1006E00049F7809180008F7D03C0809180008F77D3
:1006F00080938000DFCF84B58F7784BDDBCF84B556
:100700008F7DFBCF8091B0008F778093B000D2CFE8
:100710008091B0008F7DF9CF3E2BDACFCF93DF935E
:1007200090E0FC01E750FA4F2491895E994FFC015B
:1007300084918823D1F090E0880F991FFC01E55245
:10074000FA4FA591B491FC01E35FF94FC591D491A3
:1007500061110EC09FB7F8948C91E22FE0958E2323
:100760008C932881E223E8839FBFDF91CF91089586
:100770008FB7F894EC91E22BEC938FBFF6CF3FB795
:10078000F8948091F2019091F301A091F401B0915D
:10079000F50126B5A89B05C02F3F19F00196A11DB4
:1007A000B11D3FBFBA2FA92F982F8827BC01CD01BB
:1007B000620F711D811D911D42E0660F771F881F1A
:1007C000991F4A95D1F708958F929F92AF92BF9249
:1007D000CF92DF92EF92FF926B017C010E94BF03E8
:1007E0004B015C01C114D104E104F104B9F00E9491
:1007F000BF03681979098A099B09683E734081051E
:10080000910580F321E0C21AD108E108F10888EED1
:10081000880E83E0981EA11CB11CE4CFFF90EF90DE
:10082000DF90CF90BF90AF909F908F9008950895E4
:10083000AF92BF92CF92DF92EF92FF920F931F93EE
:10084000CF93DF936C017B018B01040F151FEB012C
:100850005E01AE18BF08C017D10759F06991D601E3
:10086000ED91FC910190F081E02DC6010995892B55
:1008700079F7C501DF91CF911F910F91FF90EF9014
:10088000DF90CF90BF90AF900895FC01538D448DC1
:10089000252F30E0842F90E0821B930B541710F02B
:1008A000CF96089501970895FC01918D828D981738
:1008B00061F0A28DAE0FBF2FB11D5D968C91928D10
:1008C0009F5F9F73928F90E008958FEF9FEF089541
:1008D0002FB7F8948091F6019091F701A091F8015B
:1008E000B091F9012FBF8093020290930302A0936D
:1008F0000402B09305028AEF91E00E94540497FF2E
:1009000026C02FB7F8948091F6019091F701A0913D
:10091000F801B091F9012FBF4091020250910302FA
:100920006091040270910502841B950BA60BB70B16
:100930004091FE015091FF0160910002709101020F
:1009400084179507A607B707B0F28FEF9FEF0895BA
:10095000FC01918D828D981731F0828DE80FF11D89
:10096000858D90E008958FEF9FEF0895FC01918DA4
:10097000228D892F90E0805C9F4F821B91098F739D
:10098000992708958AEF91E00E94B60421E0892B0F
:1009900009F420E0822F089580E090E0892B29F06F
:1009A0000E94C20481110C9400000895FC01A48DE2
:1009B000A80FB92FB11DA35ABF4F2C91848D90E081
:1009C00001968F739927848FA689B7892C93A08964
:1009D000B1898C91837080648C93938D848D9813EE
:1009E00006C00288F389E02D80818F7D8083089581
:1009F000EF92FF920F931F93CF93DF93EC0181E06F
:100A0000888F9B8D8C8D98131AC0E889F989808115
:100A100085FF15C09FB7F894EE89FF896083E88948
:100A2000F98980818370806480839FBF81E090E03A
:100A3000DF91CF911F910F91FF90EF900895F62EC7
:100A40000B8D10E00F5F1F4F0F731127E02E8C8D61
:100A50008E110CC00FB607FCFACFE889F9898081A6
:100A600085FFF5CFCE010E94D604F1CFEB8DEC0FC0
:100A7000FD2FF11DE35AFF4FF0829FB7F8940B8FC3
:100A8000EA89FB8980818062CFCFCF93DF93EC012D
:100A9000888D8823B9F0AA89BB89E889F9898C9166
:100AA00085FD03C0808186FD0DC00FB607FCF7CF22
:100AB0008C9185FFF2CF808185FFEDCFCE010E9422
:100AC000D604E9CFDF91CF9108952091A401260F9C
:100AD0003327331F21323105ECF42091C801FC018A
:100AE00090E080E0243069F082E00895A091A401B4
:100AF0002191AC014C575E4FA40FB52FB11D2C9323
:100B00000196861798F38091A401680F6093A40161
:100B100080E0089581E0089508958FEF9FEF089594
:100B20008FEF9FEF089580917D0190E091958195E1
:100B300091090895CF93DF93CB01EA01642F0E94BE
:100B40006505CE01DF91CF910895CF93DF931F927A
:100B5000CDB7DEB7698361E0CE0101960E946505DD
:100B600081E090E00F90DF91CF910895FC01A5A165
:100B7000B6A18C9192A589238C93A5A1B6A18C9145
:100B800091A5892B8C930895DC019396ED91FC91AE
:100B90009497908198968C91892380830895DC01A5
:100BA0009396ED91FC919497908197968C91892BD7
:100BB00080830895DC019196ED91FC91929790814C
:100BC00096968C91892380830895DC019196ED910E
:100BD000FC919297908195968C91892B80830895B2
:100BE000CF92DF92EF92FF921F93CF93DF93EC01AE
:100BF0006A017B018DA9811123C08F2D9927AA2716
:100C0000BB278EBD0DB407FEFDCFC701AA27BB27AA
:100C10008EBD0DB407FEFDCFBB27AF2D9E2D8D2DB4
:100C20008EBD0DB407FEFDCFCEBC0DB407FEFDCFCB
:100C3000DF91CF911F91FF90EF90DF90CF900895BB
:100C40008130B1F410E2CE01F7FE0FC00E94E5053D
:100C5000CE010E94CF05CE010E94C405CC0CDD1C44
:100C6000EE1CFF1C115079F7E3CF0E94DA05F0CF9C
:100C7000EF8DF8A18F2D9927AA27BB278083CE015E
:100C80000E94B605EF8DF8A1C701AA27BB27808374
:100C9000CE010E94B605EF8DF8A1BB27AF2D9E2D8A
:100CA0008D2D8083CE010E94B605EF8DF8A1C08204
:100CB000CE01DF91CF911F91FF90EF90DF90CF9009
:100CC0000C94B605FF920F931F93CF93DF93EC0123
:100CD0008B018DA981110EC01EBD0DB407FEFDCF85
:100CE0000EBD0DB407FEFDCFDF91CF911F910F9187
:100CF000FF9008958130B1F490E1F92ECE0117FFF5
:100D00000EC00E94E505CE010E94CF05CE010E94D3
:100D1000C405000F111FFA94F110F0CFE5CF0E9427
:100D2000DA05F1CFEF8DF8A11083CE010E94B60550
:100D3000EF8DF8A10083CE01DF91CF911F910F912C
:100D4000FF900C94B6050F931F93CF93DF93EC01A4
:100D5000162F8DA9811109C06EBD0DB407FEFDCF00
:100D6000DF91CF911F910F910895813099F408E0A0
:100D7000CE0117FF0CC00E94E505CE010E94CF05F1
:100D8000110FCE010E94C405015091F7E9CF0E94D6
:100D9000DA05F3CFEF8DF8A16083CE01DF91CF911B
:100DA0001F910F910C94B605CF93DF93EC01ED8D5D
:100DB000FE8D80819CA989238083CE010E94A30699
:100DC000ED8DFE8D80819BA9892B8083DF91CF9152
:100DD0000895FC0185A9811104C091A182A19CBD47
:100DE0008DBD08951F93CF93DF93EC01162FE881FB
:100DF000F9810284F385E02D0995112371F06DAD21
:100E0000CE010E94D406E881F9810688F789E02D99
:100E1000CE01DF91CF911F9109946EADF1CFAF92CA
:100E2000BF92CF92DF92EF92FF920F931F93CF93D7
:100E3000DF93EC0177FD38C08885998568177907BD
:100E40009CF557FD31C08A859B854817590764F585
:100E500069017A015B01E881F9810284F385E02D63
:100E6000CE010995E881F98102A4F3A5E02D01E006
:100E700010E021E030E0A701B501CE010995B601EF
:100E8000CE010E946206E881F9810688F789E02D8B
:100E9000CE01DF91CF911F910F91FF90EF90DF90E6
:100EA000CF90BF90AF900994DF91CF911F910F9198
:100EB000FF90EF90DF90CF90BF90AF9008958F920A
:100EC0009F92AF92BF92CF92DF92EF92FF920F93D9
:100ED0001F93CF93DF93EC0149015701E881F9811A
:100EE00002A4F3A5E02D09959401D8010E94301CBD
:100EF0006B017C01C114D104E104F10409F47DC04B
:100F00008DA9811115C081E0C81AD108E108F10846
:100F10008FEFC816D806E806F80609F46EC0BEBC06
:100F20000DB407FEFDCFAEBC0DB407FEFDCFEBCF79
:100F3000813099F581E0C81AD108E108F1088FEFF6
:100F4000C816D806E806F80609F457C00B2D18E0B5
:100F5000CE0107FF1CC00E94E505CE010E94CF050F
:100F6000CE010E94C405000F115091F70A2D18E020
:100F7000CE0107FF0FC00E94E505CE010E94CF05FC
:100F8000CE010E94C405000F115091F7D3CF0E94EB
:100F9000DA05E3CF0E94DA05F0CFBA1016C0CC0C08
:100FA000DD1CEE1CFF1CEF8DF8A1B08281E0C81A99
:100FB000D108E108F1088FEFC816D806E806F80650
:100FC000E1F0CE010E94B605F1CF81E0C81AD10848
:100FD000E108F1088FEFC816D806E806F80669F0B0
:100FE000EF8DF8A1B082CE010E94B605EF8DF8A179
:100FF000A082CE010E94B605E8CFDF91CF911F916C
:101000000F91FF90EF90DF90CF90BF90AF909F90A7
:101010008F9008958F929F92AF92BF92CF92DF925E
:10102000EF92FF920F931F93CF93DF935C014B01DD
:101030006A01E90177FD52C0DC0118968D919C91FF
:10104000681779070CF04AC0209709F447C037FFAA
:1010500007C0C9010196C80ED91ED195C195D10905
:10106000F50182859385C816D906C4F5A6014C0FF3
:101070005D1F9A012150310937FD30C0D7FE03C0F2
:10108000EA01D12CC12C281739071CF0EC01CC192E
:10109000DD09D501ED91FC910284F385E02DC501B8
:1010A000099578018E0121E030E0A601B401C50167
:1010B0000E945F07D501ED91FC910688F789E02D2C
:1010C000C501DF91CF911F910F91FF90EF90DF90BD
:1010D000CF90BF90AF909F908F900994DF91CF9168
:1010E0001F910F91FF90EF90DF90CF90BF90AF9046
:1010F0009F908F9008958F929F92AF92BF92CF92C0
:10110000DF92EF92FF920F931F93CF93DF935C01D7
:101110006B014A01E90157FD52C0DC011A968D911D
:101120009C91481759070CF04AC0209709F447C012
:1011300037FF07C0C9010196C80ED91ED195C195C8
:10114000D109F50180859185C816D906C4F5A60197
:101150004C0F5D1F9A012150310937FD30C0D7FE79
:1011600003C0EA01D12CC12C281739071CF0EC016F
:10117000CC19DD09D501ED91FC910284F385E02DB8
:10118000C5010995780101E010E09E01A401B601B6
:10119000C5010E945F07D501ED91FC910688F78992
:1011A000E02DC501DF91CF911F910F91FF90EF903E
:1011B000DF90CF90BF90AF909F908F900994DF9178
:1011C000CF911F910F91FF90EF90DF90CF90BF9044
:1011D000AF909F908F9008958F929F92AF92BF9201
:1011E000CF92DF92EF92FF920F931F93CF93DF93F3
:1011F0004C016B015A01E901209709F46CC00115FB
:10120000110509F468C037FF07C0C9010196C80E6F
:10121000D91ED195C195D109F401A085B185CA1611
:10122000DB060CF058C017FF07C0C8010196A80ED6
:10123000B91E119501951109F40182859385A816AF
:10124000B9060CF048C0F601EC0FFD1FAF0141508C
:10125000510957FD40C0B501600F711F9B0121501E
:10126000310937FD38C0D7FE03C0EF01D12CC12CA6
:10127000B7FE03C08B01B12CA12C4A175B071CF0F1
:10128000ED01CC19DD09281739071CF08C010A196A
:101290001B09D401ED91FC910284F385E02DC4017A
:1012A00009959E01A501B601C4010E945F07D40102
:1012B000ED91FC910688F789E02DC401DF91CF9173
:1012C0001F910F91FF90EF90DF90CF90BF90AF9064
:1012D0009F908F900994DF91CF911F910F91FF9074
:1012E000EF90DF90CF90BF90AF909F908F90089538
:1012F000EF92FF920F931F93CF93DF9377FD32C04E
:10130000DC011896ED91FC916E177F075CF52115B5
:10131000310541F137FF07C0F90131964E0F5F1FCC
:10132000319521953109DC011A96ED91FC914E170A
:101330005F07C4F4EA01C20FD31FDE011197B7FDA6
:1013400011C057FF03C09E0150E040E0AE17BF0739
:101350001CF09F01241B350B7801890121E030E04E
:101360000E945F07DF91CF911F910F91FF90EF9047
:101370000895EF92FF920F931F93CF93DF9357FD42
:1013800031C0DC011A96ED91FC914E175F0754F5C0
:101390002115310539F137FF07C0F90131966E0F7C
:1013A0007F1F319521953109DC011896ED91FC9153
:1013B0006E177F07BCF4EB01C20FD31FDE0111973C
:1013C000B7FD10C077FF03C09E0170E060E0AE176C
:1013D000BF071CF09F01261B370B780101E010E0CE
:1013E0000E945F07DF91CF911F910F91FF90EF90C7
:1013F00008958F929F92AF92BF92CF92DF92EF9219
:10140000FF920F931F93CF93DF934701211531056F
:1014100009F44BC00115110509F447C037FF07C097
:10142000F90131966E0F7F1F319521953109DC014D
:101430001896AD90BC906A157B05BCF517FF07C0E8
:10144000F80131964E0F5F1F119501951109DC01CE
:101450001A96ED91FC914E175F073CF56B01C20E99
:10146000D31EE6012197D7FD20C07A01E00EF11EC0
:10147000D7011197B7FD19C077FF03C0960170E03F
:1014800060E057FF03C0870150E040E0CA15DB056C
:101490001CF09501261B370BAE17BF071CF08F0100
:1014A000041B150B74010E945F07DF91CF911F9100
:1014B0000F91FF90EF90DF90CF90BF90AF909F90F3
:1014C0008F900895EF92FF920F931F93CF93DF9326
:1014D000EC0177FD22C08885998568177907ECF4BF
:1014E00057FD1BC08A859B8548175907B4F47901BD
:1014F000E881F98102A4F3A5E02D01E010E021E0EC
:1015000030E0CE010995B701CE01DF91CF911F9157
:101510000F91FF90EF900C946206DF91CF911F9195
:101520000F91FF90EF900895CF93DF93EC010E940D
:10153000E9068FA987FD06C0EB8DFC8D80819AA9F5
:1015400089238083DF91CF9108950895AF92BF9250
:10155000CF92DF92EF92FF920F931F93CF93DF937F
:10156000BC016F5F7F4FFC011491115008F47AC0E9
:10157000FB01D4917B01F2E0EF0EF11CFB013196EF
:101580000491C02FCF7786EB92E00E94E90680910C
:10159000ED0287FD09C0E091D102F091D202808175
:1015A0009091E80289238083E091D302F091D402E4
:1015B00080819091EA02892380836D2F86EB92E0EF
:1015C0000E94A306E091D302F091D4028081909111
:1015D000E902892B8083F701B12CA12CD0E0AC1655
:1015E000BD06F4F48091EB026F01823081F48091AA
:1015F000E602882361F0619171916F0186EB92E0C0
:101600000E946206EFEFAE1ABE0AF601E8CF8FEF36
:10161000C81AD80A649186EB92E00E94A306F2CF22
:101620008091ED0287FD09C0E091D102F091D202D4
:1016300080819091E702892B8083B7016C0F7D1F19
:1016400007FF93CFEB012196FB01649170E06F3FA0
:10165000710511F464EF71E090E080E00E94E40312
:10166000BE0183CFDF91CF911F910F91FF90EF903B
:10167000DF90CF90BF90AF9008950F931F93CF93BB
:10168000DF93EC018B010E94E9068FA987FD06C05C
:10169000EB8DFC8D80819AA989238083ED8DFE8D51
:1016A00080819CA98923808366E3CE010E94A306E2
:1016B000ED8DFE8D80819BA9892B80838DA9F801FA
:1016C000823091F06081CE010E94A3068FA987FD30
:1016D00006C0EB8DFC8D808199A9892B8083DF91D9
:1016E000CF911F910F91089588A9882359F36081A4
:1016F0007181CE010E946206E9CFFC0187A987FDB6
:1017000006C0A38DB48D9C9181A9892B8C930895DB
:101710000895FC016370668B8481958126813781F1
:10172000613039F0633029F09187808733872287D1
:101730000895318720879387828708952F923F925B
:101740004F925F926F927F928F929F92AF92BF92D1
:10175000CF92DF92EF92FF920F931F93CF93DF937D
:10176000CDB7DEB76A970FB6F894DEBF0FBECDBF18
:101770009A8F898F7A8369834A01D22E18870F83C3
:101780003701BC2CDC0159962D913C915A972115BB
:10179000310509F015C118968D919C91199768171C
:1017A00079070CF0D7C11A968D919C91481759076B
:1017B0000CF0D0C14C2C512CB6E0CB9E600D711DAD
:1017C00011247C876B87161617060CF0C3C1EA2D0F
:1017D000F0E0FA87E98793E0EE0FFF1F9A95E1F7B3
:1017E000F88BEF87CF01840F951F181619060CF0A0
:1017F000B1C1A98DBA8D58968C91811104C0BFEAF0
:10180000BD1508F4D394A98DBA8DED91FC91119773
:101810000284F385E02DCD010995B5E0DB9EC00182
:101820001124E981FA81FC83EB83312C212C9C016A
:1018300028593F4F388F2F8B4A2D50E05E8B4D8BB0
:10184000EF89F88DE20DF31D44919E828D82D12C9B
:10185000C12C69817A81620D731D7A8B698B842F0B
:1018600090E09C8B8B8BE98DFA8DA081B18140FF3C
:1018700082C0F1E0BF126FC0AF126DC01C96ED9137
:10188000FC912F813885A4014C0D5D1D69897A89F1
:10189000898D9A8D0995EB89FC89F595E7954E2FF1
:1018A0005FEFC51AD50A6D817E818D899E89680F8B
:1018B000791F7E836D8398E0C916D10481F6AFEF5E
:1018C0002A1A3A0AEB81FC81E40DF51DFC83EB83B7
:1018D000F5E02F16310409F0B3CF2F813885261596
:1018E0003705B9F0A98DBA8DED91FC91B1E0BB122D
:1018F00057C0AB1255C069817A816B5F7F4F0088FA
:10190000F189E02D830128E030E0A401898D9A8DD2
:101910000995A98DBA8DED91FC9111970688F789EB
:10192000E02DCD016A960FB6F894DEBF0FBECDBF95
:10193000DF91CF911F910F91FF90EF90DF90CF90AB
:10194000BF90AF909F908F907F906F905F904F90DF
:101950003F902F9009941E96ED91FC91EF80F884B2
:1019600009851A8592014D815E816B817C81898D0B
:101970009A8D099590CF2F8138852615370509F462
:101980008ACF31E0B31207C0A31205C01C96ED91B7
:10199000FC91930178CF1E96ED91FC917301E0CFFD
:1019A0006B857C85641975090684F785E02D7301C4
:1019B0000F8518899201A401898D9A8D0995A9CF67
:1019C000F90134969491329745915491D91AB7E020
:1019D000DB9E400D511D1124F901259134913C8B62
:1019E0002B8BFA0125903490FA013296749031963F
:1019F0003491398B329664903196449041E04C1585
:101A000018F04A1508F07FC0662D062C000C770BE5
:101A10007C836B83842D042C000C990B9E838D8317
:101A2000A98DBA8DED91FC9111970284F385E02D7B
:101A3000CD010995512CD12CC12CEA2DF0E0FA876B
:101A4000E9872B2D30E03C872B87A401440D511DE5
:101A500047FC5A95588F4F8B69817A81660D711DAD
:101A600067FC7A957E876D877989C71608F051CF14
:101A70002C2D30E04D815E81420F531FA985BA8520
:101A80004A9FC0014B9F900D5A9F900D1124FC015D
:101A9000E80DF91DF88BEF87852D612C4F89588D46
:101AA000420F531F5E8B4D8B671408F050C04424C7
:101AB0004394480E877041F4C1010196EB89FC897B
:101AC000E20DF31DD4901C01D7FE19C0A98DBA8D6B
:101AD000ED91FC91662D70E0B1E0BB1219C0AB1224
:101AE00017C02D853E85620F731F0484F585E02D98
:101AF0002F8138854D895E89898D9A8D0995DD0CF8
:101B00006394842DD1CF1E821D821C821B8288CFBC
:101B10004B815C81640F751FAB85BC856A9FC001DA
:101B20006B9F900D7A9F900D112469817A81680FC7
:101B3000791F0684F785E02DEF80F88409851A85E2
:101B40009D014F855889898D9A8D0995D8CF570C5D
:101B5000C3948ACF6A960FB6F894DEBF0FBECDBF8E
:101B6000DF91CF911F910F91FF90EF90DF90CF9079
:101B7000BF90AF909F908F907F906F905F904F90AD
:101B80003F902F9008958F929F92AF92CF92EF92B5
:101B9000FF920F931F93CF93DF93EC01262F898D34
:101BA0009A8D009709F051C06A30D1F41D861C86C9
:101BB0008D8948E0849F900111248E859F85820F36
:101BC000931F9F878E8781E090E0DF91CF911F91D7
:101BD0000F91FF90EF90CF90AF909F908F900895CE
:101BE0006D3089F3CC88AD888F898823C1F08C85CE
:101BF0009D8536E0C39E800D911D11244885598531
:101C00004817590764F44E855F851D861C8638E0A9
:101C1000A39EC0011124840F951F9F878E87EA8899
:101C2000FB88088919894E855F856C857D85CE0185
:101C30000E949E0B2C898C859D8546E0249F800DFB
:101C4000911D11249D878C87BECF6A3069F41D8653
:101C50001C86FC013896E4912D898E859F85E29F34
:101C6000800D911D1124ADCF6D3009F4ACCFFC0176
:101C700034963491631708F4A6CF3296E491E617B0
:101C800008F4A1CFFC01329685909490462F431B17
:101C9000342F47E0349F800C911C1124F4013296BC
:101CA00034913196E4913323A9F1EE2399F1CC8854
:101CB000F4013596E491AD884F89442301F10E2E4D
:101CC000000CFF0BE30FF11DCE9EA001CF9E500D27
:101CD00011246C857D85460F571F688579856417AB
:101CE00075076CF44E855F851D861C86FC01389651
:101CF000E491AE9E400D511D11245F874E87EA8806
:101D0000FB88088919894E855F856C857D85CE01A4
:101D10000E949E0BF4013496E4912C898C859D855C
:101D2000E29F800D911D11248DCF6F927F928F9233
:101D30009F92AF92BF92CF92DF92EF92FF920F935A
:101D40001F93CF93DF93EC016B015A0139014801D6
:101D5000E881F9810284F385E02D0995E881F98114
:101D60000288F389E02D87019301A501B601CE0118
:101D70000995A501480D591D41505109E881F98186
:101D80000288F389E02D9301B601CE010995E8811F
:101D9000F9810088F189E02D9401A501B601CE01F9
:101DA0000995C60CD71CB60161507109E881F9810B
:101DB0000088F189E02D9401A501CE010995E88103
:101DC000F9810688F789E02DCE01DF91CF911F912F
:101DD0000F91FF90EF90DF90CF90BF90AF909F90CA
:101DE0008F907F906F9009946F927F928F929F92C5
:101DF000AF92BF92CF92DF92EF92FF920F931F9319
:101E0000CF93DF935C01EB016A014901380187013F
:101E1000DC01ED91FC916217730719F564167506E4
:101E20002CF0962D872D3A01C92ED82E9601261911
:101E300037092F5F3F4F048CF58DE02DA301BE01C4
:101E4000C5010995DF91CF911F910F91FF90EF9000
:101E5000DF90CF90BF90AF909F908F907F906F90CA
:101E600008954615570591F42617370724F0892D54
:101E70004B01C22FD82F9E01281939092F5F3F4FE0
:101E8000068CF78DE02DA601B401DACF0284F3852C
:101E9000E02D0995D501ED91FC910488F589E02D9F
:101EA00083019401A601BE01C5010995D501ED91FB
:101EB000FC910688F789E02DC501DF91CF911F9134
:101EC0000F91FF90EF90DF90CF90BF90AF909F90D9
:101ED0008F907F906F900994EF92FF920F931F93D2
:101EE000DC011A960D911C911B9718962D913C912F
:101EF0001997ED91FC9100A0F1A1E02D7B0150E03C
:101F000040E070E060E009951F910F91FF90EF9025
:101F100008954F925F926F927F928F929F92AF92AD
:101F2000BF92CF92DF92EF92FF920F931F93CF93C6
:101F3000DF936C012B015A0139014801DC01ED915D
:101F4000FC910284F385E02D0995E201640C751C77
:101F5000D601ED91FC91C615D7055CF40088F18996
:101F6000E02D87019401A501BE01C60109952196C6
:101F7000EFCF0688F789E02DC601DF91CF911F9141
:101F80000F91FF90EF90DF90CF90BF90AF909F9018
:101F90008F907F906F905F904F9009948F929F9257
:101FA000AF92BF92CF92DF92EF92FF920F931F9367
:101FB000CF93DF93EC015B014A016901E881F9816C
:101FC0000284F385E02D099595012C0D3D1D2150CE
:101FD0003109E881F9810488F589E02D78018401CF
:101FE000A401B501CE010995E881F9810688F78938
:101FF000E02DCE01DF91CF911F910F91FF90EF90D7
:10200000DF90CF90BF90AF909F908F9009948F9268
:102010009F92AF92BF92CF92DF92EF92FF920F9377
:102020001F93CF93DF93EC015B014A0169017801B3
:10203000E881F9810284F385E02D0995C80CD91C4B
:10204000860101501109E881F9810488F589E02DA4
:102050009501A401B501CE010995E881F9810688B1
:10206000F789E02DCE01DF91CF911F910F91FF9065
:10207000EF90DF90CF90BF90AF909F908F9009949A
:10208000EF92FF920F931F93DC01ED91FC9100A062
:10209000F1A1E02D09951F910F91FF90EF90089508
:1020A0000F931F93DC01ED91FC91068CF78DE02DD1
:1020B00009951F910F9108950F931F93DC01ED91E6
:1020C000FC91048CF58DE02D09951F910F910895D9
:1020D000DC01ED91FC910084F185E02D09942F92B3
:1020E0003F924F925F926F927F928F929F92AF92A8
:1020F000BF92CF92DF92EF92FF920F931F93CF93F5
:10210000DF9300D000D000D0CDB7DEB73C016A012C
:102110003E832D83FC82EB825801A41AB50AB7FED8
:1021200003C0B194A194B1088D809E80861A970A4D
:1021300097FE03C09194819491088A149B045CF0EB
:10214000902F812F0D811E819D838E839C2D8D2D3F
:102150006B01692F782F0C151D055CF09D818E8118
:102160007E836D83692F782F902F812F8601C92E52
:10217000D82E1601201A310A2B012D813E81421AD8
:10218000530A57FE03C0519441945108710137FE20
:1021900003C03FEFE31AF30AF594E7948D819E8123
:1021A000861797075CF5A1E0B0E0BA83A983C01653
:1021B000D1064CF1D301ED91FC910484F585E02D1D
:1021C0002B813C81A8016D817E818A149B041CF0C7
:1021D0004D815E81B801C3010995E418F508F7FE49
:1021E0000AC02D813E8189819A81280F391F3E8343
:1021F0002D83E20CF31C0F5F1F4FD9CF2FEF3FEF62
:102200003A832983D4CF26960FB6F894DEBF0FBE4B
:10221000CDBFDF91CF911F910F91FF90EF90DF9095
:10222000CF90BF90AF909F908F907F906F905F9076
:102230004F903F902F900895CF93DF931F92CDB78B
:10224000DEB7FC0119826370668BDC01AD5BBF4FAA
:102250002C9130E011968C9190E0623031F0633037
:10226000C9F0613081F040EC498332AF21AF94AFC7
:1022700083AFBE016F5F7F4FCF010E943D0B0F9078
:10228000DF91CF91089540EA498334AF23AF92AFF5
:1022900081AFEFCF40E6F8CF8F929F92AF92BF927F
:1022A000CF92DF92EF92FF920F931F93CF93DF9322
:1022B000EC0189AD9AAD680F791F8BAD9CAD480FCD
:1022C000591F21503109260F371F4901B12CA12C6C
:1022D000CB01B0E0A0E0DC0199278827882A992A61
:1022E000AA2ABB2A680181E0C81AD108C40ED51EEB
:1022F000F12CE12C70E060E0BA0155274427C42A94
:10230000D52AE62AF72A6AE2CE010E94D406B50150
:10231000A401CE010E94F0056BE2CE010E94D4061A
:10232000B701A601CE010E94F0056CE2CE01DF915B
:10233000CF911F910F91FF90EF90DF90CF90BF90C2
:10234000AF909F908F900C94D406CF93DF931F9201
:10235000CDB7DEB7FC0119826370668BDC01AA5B26
:10236000BF4F8C91982F9B7FAF014C5B5F4F91309B
:1023700031F493E0623008F091E0DA019C939F0120
:102380002D5B3F4F623009F44CC0633009F45BC0F1
:10239000613069F1823021F098EC843009F046C058
:1023A00090EC99838130D1F480E890E09387828724
:1023B00091878087D9018C9190E092AF81AFDA014B
:1023C0008C9190E094AF83AFBE016F5F7F4FCF01E0
:1023D0000E943D0B0F90DF91CF910895843051F50D
:1023E00080EA90E09387828780E590E0E1CF8230B9
:1023F00019F098EA843071F590EA99838130B1F54B
:1024000080E890E09187808793878287D9018C91BB
:1024100090E094AF83AFDA018C9190E092AF81AFFE
:10242000D3CF823049F08430D9F298E0998381305B
:1024300009F4BACF8630A1F280EA90E093878287D0
:1024400080E890E0B5CF823019F098E6843011F43E
:1024500090E6D3CF9983813099F2863051F480EAA7
:1024600090E09187808780E590E0CECF8430B9F30B
:10247000F4CF80EA90E09187808780E890E0C4CF35
:1024800090E080E00895FC0180819181009711F037
:102490000C94E11C08952091AE023091AF02232BE1
:1024A00039F421E0FC018081882361F020E00AC03A
:1024B000BC018091AA029091AB020E94351E21E0DE
:1024C000892BA1F7822F0895FC0124813581FB011E
:1024D0004481558124173507E1F4FC018081918105
:1024E000FB01608171810097D1F061157105A1F444
:1024F000232BC1F0FC01808190E008C0232B91F0D8
:10250000FB01808190E091958195910921E0892BD3
:1025100009F020E0822F08950E94351EF7CF611543
:10252000710561F721E0F6CF0E94271ECF93DF935C
:10253000DC011496ED91FC916E177F0728F541158B
:10254000510511F19F01261B370B4217530708F461
:102550009A01DB01EC0188819981E21BF30BFD8379
:10256000EC83AF01461B570B260F371FBC01620FD0
:10257000731F8A0F9B1F0E94451EE881F9818C8181
:102580009D81E80FF91F1082DF91CF9108950F937D
:102590001F93CF93DF93EC0188819981009759F0C5
:1025A0002A813B812617370730F081E0DF91CF91F8
:1025B0001F910F9108958B016F5F7F4F0E946A1DDD
:1025C000009759F0998388831B830A832C813D816E
:1025D000232B59F7FC011082E8CF80E0E7CFEF9280
:1025E000FF920F931F93CF93DF93EC017B018A013E
:1025F000BA010E94C71228813981811114C02115A6
:10260000310519F0C9010E94E11C198218821D824E
:102610001C821B821A82CE01DF91CF911F910F91F4
:10262000FF90EF9008951D830C83B701C9010E94AC
:102630003E1EF1CFCF93DF93EC0182E0C03BD80781
:1026400071F06091B0027091B1026115710559F09D
:102650004091B4025091B502CE010E94EF12CE011A
:10266000DF91CF91089588819981009711F00E94A0
:10267000E11C198218821D821C821B821A82EFCFF4
:10268000FC01118210821382128215821482FB01D6
:1026900001900020E9F73197AF01461B570B0C94CE
:1026A000EF12FB0101900020E9F73197AF01461BC3
:1026B000570BDC01ED91FC910280F381E02D099430
:1026C0007093C3026093C2025093C5024093C40248
:1026D0001092C9021092C8021092C7021092C6024C
:1026E0002093CA022093CB0221E02093CD020097D1
:1026F00029F0BC0186EB92E00C94511308951F93CE
:10270000CF93DF9385ED8093BC0080918001909101
:102710008101A0918201B09183010796A11DB11D95
:1027200023E0B695A795979587952A95D1F720919F
:10273000BC0024FD03C01092C80152C0409180012A
:10274000509181016091820170918301452B462B4C
:10275000472B69F30097A105B10541F02AE22A95BC
:10276000F1F700C00197A109B109E1CF80917F0184
:10277000C1E0C0937E01882399F1D091B8001091F7
:10278000BA008091BC008A7B8093BC0060E082E14B
:102790000E94420360E083E10E9442031092C8015C
:1027A000C093CA011092C90161E082E10E94420314
:1027B00061E083E10E9442038091B9008E7F8093A3
:1027C000B9008091B9008D7F8093B90088E480932F
:1027D000B80085E48093BC001093BA00D093B80091
:1027E000DF91CF911F910895CF92DF92EF92FF92E8
:1027F0000F931F93CF93DF93EC016A017B01C11408
:10280000D104E104F10439F4C12C48E4D42E48EE9B
:10281000E42EFF24F394FE01FF96C082D182E2826F
:10282000F38281E28DAF80E28EAF369610818FA960
:1028300087FD07C061E00E948E0361E08FA90E94BE
:10284000420361E088AD0E948E0361E088AD0E9482
:1028500042038DA9811182C040E052E16AE770E035
:10286000C416D506E606F70640F4769567955795A3
:1028700047958F5F8630A1F787E0212F2C70206568
:10288000982F9695922B99A3809581708AA3812F7A
:1028900090E0B0E0A0E08BA39CA3ADA3BEA31FB7C4
:1028A000F89480917C01811127C0E1E2F6E08491E7
:1028B000E3E0F6E09491E82FF0E0EE0FFF1FE55221
:1028C000FA4FA591B491EC91E92321F461E08AE0FB
:1028D0000E94420361E08AE00E948E038CB5806111
:1028E0008CBD8CB580648CBD61E08DE00E948E0350
:1028F00061E08BE00E948E0380917C018F5F80936A
:102900007C011FBF8EA987FD75C061E00E948E0308
:1029100061E08EA90E94420364E670E080E090E0EE
:102920000E94E40360E08EA90E94420364E670E026
:1029300080E090E00E94E40361E08EA90E944203DF
:1029400068EC70E080E090E0DF91CF911F910F91F3
:10295000FF90EF90DF90CF900C94E40307E116E036
:10296000F12C8130B9F461E08AA50E948E0360E009
:102970008AA50E94420361E08CA50E948E0360E05C
:102980008CA50E9442038BA587FDBCCF60E00E940E
:102990008E03B8CFF8018491E82FF0E0EE0FFF1F0F
:1029A000E35FF94F859194912F8D38A1281739074E
:1029B00041F461E08F2D0E948E0360E08F2D0E9414
:1029C0004203F3940F5F1F4FF4E1FF12E3CF61E086
:1029D0008EA50E948E0361E08EA50E9442038FA502
:1029E00087FD90CF61E00E948E0361E08FA50E9479
:1029F000420388CFDF91CF911F910F91FF90EF900D
:102A0000DF90CF9008951F920F920FB60F9211246E
:102A10002F933F938F939F93AF93BF938091F60132
:102A20009091F701A091F801B091F9013091F10175
:102A300023E0230F2D3758F50196A11DB11D2093DA
:102A4000F1018093F6019093F701A093F801B09300
:102A5000F9018091F2019091F301A091F401B091FC
:102A6000F5010196A11DB11D8093F2019093F30130
:102A7000A093F401B093F501BF91AF919F918F9115
:102A80003F912F910F900FBE0F901F90189526E841
:102A9000230F0296A11DB11DD2CF1F920F920FB628
:102AA0000F9211242F933F934F935F936F937F93D4
:102AB0008F939F93AF93BF93EF93FF938AEF91E030
:102AC0000E94D604FF91EF91BF91AF919F918F919A
:102AD0007F916F915F914F913F912F910F900FBE1A
:102AE0000F901F9018951F920F920FB60F921124FE
:102AF0002F938F939F93EF93FF93E0910A02F091AE
:102B00000B028081E0911002F091110282FD1BC046
:102B10009081809113028F5F8F732091140282172E
:102B200041F0E0911302F0E0E650FE4F958F809364
:102B30001302FF91EF919F918F912F910F900FBEF4
:102B40000F901F9018958081F4CF1F920F920FB6AF
:102B50000F9211242F933F934F935F936F937F9323
:102B60008F939F93AF93BF93EF93FF938091B9009F
:102B7000887F803609F44AC0F0F5883209F4A5C090
:102B800018F5803109F499C0B8F4882309F4F5C028
:102B9000883009F492C0FF91EF91BF91AF919F915E
:102BA0008F917F916F915F914F913F912F910F90F6
:102BB0000FBE0F901F901895883109F486C080329F
:102BC00051F78093C70114C0803409F49BC040F4CE
:102BD0008033B9F38833F9F68093C70185ECAEC032
:102BE000803509F483C0883509F494C0883499F697
:102BF0000E947F13D0CF883909F48AC038F588370E
:102C000029F050F4883611F0803729F683E080935C
:102C1000C8011092C60155C0883809F479C08039BE
:102C200019F0803809F0B7CF8091C601803208F0E2
:102C30006FC0E091C60181E08E0F8093C601809144
:102C4000BB00F0E0EA55FE4F80833BC0803B39F08B
:102C5000D0F4803A09F477C0883A09F09CCF84E038
:102C60008093C8011092A5011092A401F0E0E0E069
:102C700009958091A40181110FC081E08093A40186
:102C80001092840109C0803C09F4A8CF883C09F463
:102C9000A5CF883B09F07FCFE091A50181E08E0FA1
:102CA0008093A501F0E0EC57FE4F80818093BB003C
:102CB0009091A5018091A40129C08091ED0180939C
:102CC000BB0085EC8093BC0066CF9091EC018091B5
:102CD000EB01981758F5E091EC0181E08E0F80939D
:102CE000EC01F0E0E553FE4F8081E9CFE091EC018B
:102CF00081E08E0F8093EC018091BB00F0E0E55302
:102D0000FE4F80839091EC018091EB019817C8F2FF
:102D100085E8D8CFE091EC0181E08E0F8093EC0143
:102D20008091BB00F0E0E553FE4F80838091CA01A3
:102D300081115ECF81E08093C90184EA8093BC0059
:102D40001092C80128CF85EC8093BC001092C80176
:102D50008091C601803230F4E091C601F0E0EA557E
:102D6000FE4F10826091C60170E086EA91E0F0E0CB
:102D7000E0E009951092C6010ECF1092C70138CF3E
:102D8000EAEFF1E01382128288EE93E0A0E0B0E077
:102D900084839583A683B78380E191E091838083C8
:102DA00085EC90E09587848784EC90E09787868710
:102DB00080EC90E0918B808B81EC90E0938B828B08
:102DC00082EC90E0958B848B86EC90E0978B868BE1
:102DD000118E128E138E148EA6EBB2E013961C92F7
:102DE0001E92129720E830E015963C932E9314978C
:102DF00080EA90E017969C938E93169719963C93D1
:102E00002E9318971B969C938E931A9756961C9206
:102E100056971D961C921E921C971F961C921E92EE
:102E20001E9781E055968C93559754968C935497A2
:102E30002FEF3FEF53963C932E93529751963C932E
:102E40002E93509757968C93579758961C92589755
:102E50005A961C921E925997D5961C92D59788E047
:102E6000D6968C93D6978AE0D7968C93D79789E09D
:102E7000D8968C93D897DA961C921E92D997DC96A6
:102E80001C921E92DB97DD961C92DD97DE961C92BB
:102E9000DE971092F5021092F6021092F70210924D
:102EA000F80287E992E090969C938E935F97E0E218
:102EB000F6E0E491F0E0EE0FFF1FE35FF94F85913C
:102EC00094915E969C938E935D97E2E0F6E08491F8
:102ED000D3968C93D397E1E2F6E0E491F0E0EE0F25
:102EE000FF1FE35FF94F259134915C963C932E933D
:102EF0005B97E3E0F6E0E491D196EC93D197E0950F
:102F0000D296EC93D297E82FE095D496EC93D49791
:102F10001092F9021092FA021092FB0282E291E002
:102F20008D939C936EE471E080EB92E00E944013DD
:102F300066E571E08AEA92E00E94401366E571E07E
:102F400084EA92E00E94401362E571E08EE992E02B
:102F50000E94401362E571E088E992E00C9440130E
:102F6000CF93DF93CDB7DEB7A3970FB6F894DEBF4C
:102F70000FBECDBF789484B5826084BD84B5816076
:102F800084BD85B5826085BD85B5816085BD809134
:102F90006E00816080936E001092810080918100AC
:102FA00082608093810080918100816080938100A4
:102FB000809180008160809380008091B100846066
:102FC0008093B1008091B00081608093B0008091C7
:102FD0007A00846080937A0080917A008260809386
:102FE0007A0080917A00816080937A0080917A00E3
:102FF000806880937A001092C10040E050E0BA01EE
:1030000086EB92E00E94F41380EA95E00E94A60A03
:1030100083E995E00E94A60A88E695E00E94A60A48
:1030200080EC8983BE016F5F7F4F86EB92E00E9448
:103030003D0B12E01093FC0260E086EB92E00E94F0
:10304000A5116FEF7FEF86EB92E00E946C0FE0918D
:103050000A02F0910B021083E0910A02F0910B0238
:103060001082E0910602F09107021082E0910802BE
:10307000F091090280E1808310921202E0910E0229
:10308000F0910F0286E08083E0910C02F0910D0236
:10309000808180618083E0910C02F0910D0280813B
:1030A00088608083E0910C02F0910D02808180683D
:1030B0008083E0910C02F0910D0280818F7D8083EE
:1030C0009AE0892E912CA12CB12C2DE5622E21E0C5
:1030D000722E33E6C32E31E0D32E87E5E82E81E051
:1030E000F82E8AEF91E00E94B604181619060CF02B
:1030F00060C266E571E0CE0101960E9440130E9415
:10310000680497FD1BC08AA31BA20D811E810F5F5F
:103110001F4FB801CE0101960E94C712882379F390
:1031200029813A818D819E81BE016E5D7F4F820F24
:10313000931F0E943E1E1E830D83E1CF8091B0023B
:103140009091B1020097B9F169817A816115710599
:1031500081F14091B2025091B3022D813E8142171C
:10316000530738F10E943E1E8D819E819093B502D7
:103170008093B4021E821D82CE0101960E944312EA
:103180008091B0029091B1020091F0012091B402BF
:103190003091B502280F391FFC012E173F0711F19E
:1031A000009729F040814D3211F40E2F081B319603
:1031B000F4CF0E94E11C89819A819093B10280939F
:1031C000B0028B819C819093B3028093B2028D8177
:1031D0009E819093B5028093B4021A8219821C8258
:1031E0001B82C8CF0093F0018AEA92E00E941A1372
:1031F00084EA92E00E941A1310E04FEF5FEFB801EB
:103200008AEA92E00E949612A8014F5F5F4F70E039
:1032100060E084EA92E00E94961268E972E084EA33
:1032200092E00E946412882309F453C01092EF01C7
:103230001092EE012090EE013090EF01032C000C73
:103240004408550857FE56C06DE28AEF91E00E948F
:10325000F80422273327A901221933094409550903
:1032600019A28E010F5D1F4FCA01B901A50194017A
:103270000E940E1C605DF80162938F0121153105DB
:103280004105510589F70115110529F0B8018AEFAB
:1032900091E00E94511364E571E08AEF91E00E9491
:1032A00051138091EE019091EF0181309105C1F5AC
:1032B000F0920501E092040189E591E09093030109
:1032C000809302018BE591E09093010180930001CE
:1032D00047C08091A4029091A502009739F00E9406
:1032E0008C1B7093EF016093EE01A4CF60E070E05F
:1032F000CB01F7CFA201910119A28E010F5D1F4FE3
:10330000CA01B901A50194010E940E1C605DF8017B
:1033100062938F01211531054105510589F7B3CF1E
:103320008230910559F4F0920501E0920401709207
:103330000301609202018FE591E0C6CF83309105D1
:1033400009F044C1E1E6F1E0F0930501E0930401E6
:103350007092030160920201D0920101C0920001BB
:103360008DE691E00E944B12882309F483C16FEF30
:103370007FEF86EB92E00E946C0F2AE030E044E1A0
:1033800050E06AE070E08FE691E00E9460132AE06E
:1033900030E044E150E061E470E081E791E00E94B8
:1033A000601325E030E043E750E06AE070E0809190
:1033B0000401909105010E94601325E030E043E78D
:1033C00050E062E370E080910201909103010E945D
:1033D000601325E030E043E750E06AE570E080915B
:1033E0000001909101010E94601387E791E00E9423
:1033F0004B128823F1F16FEF7FEF86EB92E00E9492
:103400006C0F2AE030E044E150E06AE070E08FE6C3
:1034100091E00E9460132AE030E044E150E061E472
:1034200070E089E691E00E94601325E030E043E718
:1034300050E06AE070E080910401909105010E94E3
:10344000601325E030E043E750E062E370E08091F4
:103450000201909103010E94601325E030E043E7F0
:1034600050E06AE570E080910001909101010E94B6
:10347000601389E791E00E944B12882309F448C049
:103480006FEF7FEF86EB92E00E946C0F27E030E059
:1034900044E150E064E070E08FE691E00E94601348
:1034A00027E030E044E150E06CE270E08FE691E02C
:1034B0000E94601327E030E044E150E065E570E0F1
:1034C00089E691E00E94601325E030E043E750E098
:1034D0006AE070E080910401909105010E94601300
:1034E00025E030E043E750E062E370E080910201C4
:1034F000909103010E94601325E030E043E750E023
:103500006AE570E080910001909101010E946013D2
:103510006EE972E08AEA92E00E946412882309F45C
:1035200048C06FEF7FEF86EB92E00E946C0F2AE0BD
:1035300030E045E050E06AE070E08FE591E00E9405
:1035400060132AE030E045E050E061E470E08FE590
:1035500091E00E9460132AE030E047E350E068E227
:1035600070E08FE591E00E94601325E030E043E7D2
:1035700050E06AE070E080910401909105010E94A2
:10358000601325E030E043E750E062E370E08091B3
:103590000201909103010E94601325E030E043E7AF
:1035A00050E06AE570E080910001909101010E9475
:1035B000601380E090E0892B09F493CD0E94C2044F
:1035C000882309F48ACD0E94000087CD84309105BC
:1035D00079F485E691E09093050180930401F092DF
:1035E0000301E0920201F0920101E0920001B8CEE5
:1035F0008530910569F4D0920501C0920401E7E697
:10360000F1E0F0930301E093020189E691E05CCEE2
:103610008630910579F481E691E0909305018093DD
:103620000401EBE6F1E0F0930301E093020185E68B
:1036300091E04ACE8730910579F47092050160924D
:103640000401D0920301C0920201EBE6F1E0F09395
:103650000101E093000184CE892B09F081CE8FE532
:1036600091E090930501809304019093030180936E
:1036700002012ACE83E791E00E944B12882369F071
:103680006FEF7FEF86EB92E00E946C0F2AE030E054
:1036900044E150E063E270E080CE80E591E00E947A
:1036A0004B12882379F06FEF7FEF86EB92E00E9458
:1036B0006C0F2AE030E044E150E063E270E08BE51B
:1036C00091E06DCE85E791E00E944B12882309F4CA
:1036D0008CCE6FEF7FEF86EB92E00E946C0F2AE0BA
:1036E00030E044E150E063E270E089E691E057CEDB
:1036F00088E992E00E9443128EE992E00E94431210
:1037000084EA92E00E9443128AEA92E00E94431205
:1037100080EB92E00C9443121F93FC0199278827B9
:10372000BC01E89411911032E9F3193010F01E3009
:10373000C8F31B3251F01D3249F4689406C00E9450
:10374000B31B610F711D811D911D119110531A3012
:10375000B0F33EF490958095709561957F4F8F4FB3
:103760009F4F1F910895592F482F372F262F660FEF
:10377000771F881F991F660F771F881F991F620F79
:10378000731F841F951F660F771F881F991F089549
:103790002F923F924F925F926F927F928F929F9261
:1037A000AF92BF92CF92DF92EF92FF920F931F934F
:1037B000CF93DF93CDB7DEB7CA1BDB0B0FB6F89400
:1037C000DEBF0FBECDBF09942A88398848885F8440
:1037D0006E847D848C849B84AA84B984C884DF80B1
:1037E000EE80FD800C811B81AA81B981CE0FD11D95
:1037F0000FB6F894DEBF0FBECDBFED010895A29FB6
:10380000B001B39FC001A39F700D811D1124911DB4
:10381000B29F700D811D1124911D0895A1E21A2EF1
:10382000AA1BBB1BFD010DC0AA1FBB1FEE1FFF1F64
:10383000A217B307E407F50720F0A21BB30BE40BB4
:10384000F50B661F771F881F991F1A9469F76095FB
:103850007095809590959B01AC01BD01CF010895B5
:103860000E94FF1B332312F48A1B9B0B0C943A1CFF
:103870000E94FF1BB7FF0895821B930B0895EE0F64
:10388000FF1F0590F491E02D09940F931F93CF93A0
:10389000DF938230910510F482E090E0E091FF0226
:1038A000F091000330E020E0B0E0A0E0309799F420
:1038B0002115310509F44AC0281B390B2430310584
:1038C000D8F58A819B816115710589F1FB0193838C
:1038D0008283FE0111C0408151810281138148170A
:1038E0005907E0F04817590799F4109761F01296BC
:1038F0000C93129713961C933296CF01DF91CF91C0
:103900001F910F9108950093FF0210930003F4CFCD
:103910002115310551F04217530738F0A901DB0199
:103920009A01BD01DF01F801C1CFEF01F9CF9093FA
:1039300000038093FF02CDCFFE01E20FF31F8193BE
:1039400091932250310939832883D7CF2091FD02EA
:103950003091FE02232B41F420910801309109019E
:103960003093FE022093FD02209106013091070161
:103970002115310541F42DB73EB740910A01509110
:103980000B01241B350BE091FD02F091FE02E217C2
:10399000F307A0F42E1B3F0B2817390778F0AC0172
:1039A0004E5F5F4F2417350748F04E0F5F1F50934F
:1039B000FE024093FD02819391939FCFF0E0E0E0FF
:1039C0009CCFCF93DF930097E9F0FC0132971382ED
:1039D0001282A091FF02B0910003ED0130E020E0DF
:1039E0001097A1F420813181820F931F2091FD0255
:1039F0003091FE022817390709F061C0F093FE02EA
:103A0000E093FD02DF91CF910895EA01CE17DF0721
:103A1000E8F54A815B819E0141155105B1F7E90145
:103A2000FB83EA8349915991C40FD51FEC17FD0719
:103A300061F4808191810296840F951FE901998339
:103A40008883828193819B838A83F0E0E0E01296F1
:103A50008D919C9113970097B9F52D913C911197F9
:103A6000CD010296820F931F2091FD023091FE023C
:103A70002817390739F6309751F510920003109244
:103A8000FF02B093FE02A093FD02BCCFD383C2839A
:103A900040815181840F951FC817D90761F44E5F8B
:103AA0005F4F88819981480F591F518340838A81D4
:103AB0009B81938382832115310509F0B0CFF09368
:103AC0000003E093FF029ECFFD01DC01C0CF138213
:103AD0001282D7CFB0E0A0E0E0E7FDE10C94CA1B72
:103AE0008C01009751F4CB010E94451C8C01C80148
:103AF000CDB7DEB7E0E10C94E61BFC01E60FF71F43
:103B00009C0122503109E217F30708F49DC0D90146
:103B1000CD91DC911197C617D70798F0C530D10524
:103B200030F3CE0104978617970708F3C61BD70B0F
:103B30002297C193D1936D937C93CF010E94E11C96
:103B4000D6CF5B01AC1ABD0A4C018C0E9D1EA09114
:103B5000FF02B0910003512C412CF12CE12C109765
:103B600031F58091FD029091FE028815990509F0CA
:103B70005CC04616570608F058C080910601909127
:103B80000701009741F48DB79EB740910A0150910B
:103B90000B01841B950BE817F90708F055C0F0934B
:103BA000FE02E093FD02F90171836083A0CF8D9145
:103BB0009C91119712966C90129713967C90139784
:103BC000A815B90559F56C0142E0C40ED11CCA1400
:103BD000DB0420F1AC014A195B09DA011296159752
:103BE00080F06282738251834083D9016D937C930C
:103BF000E114F10471F0D7011396FC93EE93129740
:103C000076CF22968C0F9D1FF90191838083F3015B
:103C1000EFCFF0930003E093FF0269CF48165906F7
:103C200008F42C017D01D3019ACFCB010E94451CE1
:103C30007C01009749F0AE01B8010E942C1EC8011A
:103C40000E94E11C870153CF10E000E050CF81E0DB
:103C500090E0F8940C94541EFB01DC0102C001902A
:103C60000D9241505040D8F70895FB01DC018D9131
:103C7000019080190110D9F3990B0895FB01DC0123
:103C800001900D920020E1F70895FB01DC01415005
:103C9000504048F001900D920020C9F701C01D92DC
:103CA00041505040E0F7089513E0C7E1D3E004C06D
:103CB000FE010E943F1C2196C831D107C9F7F89434
:023CC000FFCF34
:103CC2005F015F015F01000001038000000000004E
:103CD200F804180445044505B6045404A804000079
:103CE2000000C30D1804401217040F07940A620A59
:103CF200F9097809B9096F107D0BA511F2060A08B6
:103D02007B08EC086C0FF40E950EF4134C11312D58
:103D1200310065000D0A00480043004D004E002DA1
:103D220000440047004B0049004C00410035005858
:0C3D320000530030003200330034000069
:00000001FF
