:100000000C9418030C9440030C9440030C9440038C
:100010000C9440030C9440030C9440030C94400354
:100020000C9440030C9440030C9440030C94400344
:100030000C9440030C9440030C9440030C94400334
:100040000C94BB140C9440030C942B150C940515C4
:100050000C9440030C9440030C9440030C94400314
:100060000C945D150C94400300000000003E5B4FB3
:100070005B3E3E6B4F6B3E1C3E7C3E1C183C7E3C08
:10008000181C577D571C1C5E7F5E1C00183C180016
:10009000FFE7C3E7FF0018241800FFE7DBE7FF30A6
:1000A000483A060E2629792926407F050507407F14
:1000B00005253F5A3CE73C5A7F3E1C1C08081C1C87
:1000C0003E7F14227F22145F5F005F5F06097F017D
:1000D0007F006689956A606060606094A2FFA29468
:1000E00008047E040810207E201008082A1C080836
:1000F0001C2A08081E101010100C1E0C1E0C303884
:100100003E3830060E3E0E06000000000000005F84
:1001100000000007000700147F147F14242A7F2AA0
:100120001223130864623649562050000807030062
:10013000001C2241000041221C002A1C7F1C2A08AE
:10014000083E080800807030000808080808000011
:1001500060600020100804023E5149453E00427F85
:10016000400072494949462141494D331814127FD4
:100170001027454545393C4A494931412111090774
:100180003649494936464949291E000014000000F5
:1001900040340000000814224114141414140041C7
:1001A00022140802015909063E415D594E7C121184
:1001B000127C7F494949363E414141227F414141BC
:1001C0003E7F494949417F090909013E4141517337
:1001D0007F0808087F00417F41002040413F017FA8
:1001E000081422417F404040407F021C027F7F0470
:1001F00008107F3E4141413E7F090909063E4151B9
:10020000215E7F09192946264949493203017F01A8
:10021000033F4040403F1F2040201F3F4038403FA9
:10022000631408146303047804036159494D4300BF
:100230007F4141410204081020004141417F0402F6
:10024000010204404040404000030708002054548D
:1002500078407F284444383844444428384444286B
:100260007F385454541800087E090218A4A49C78BE
:100270007F0804047800447D40002040403D007F1A
:100280001028440000417F40007C047804787C08FA
:100290000404783844444438FC18242418182424CE
:1002A00018FC7C08040408485454542404043F44B3
:1002B000243C4040207C1C2040201C3C4030403CE2
:1002C00044281028444C9090907C4464544C440042
:1002D00008364100000077000000413608000201A6
:1002E0000204023C2623263C1EA1A161123A404092
:1002F000207A38545455592155557941225454780F
:1003000042215554784020545579400C1E527212A7
:100310003955555559395454545939555454580030
:1003200000457C410002457D420001457C407D1234
:1003300011127DF0282528F07C5455450020545496
:100340007C547C0A097F4932494949323A44444441
:100350003A324A4848303A4141217A3A424020787C
:10036000009DA0A07D3D4242423D3D4040403D3C7D
:1003700024FF2424487E4943662B2FFC2F2BFF09A2
:1003800029F620C0887E0903205454794100004496
:100390007D413048484A32384040227A007A0A0A81
:1003A000727D0D19317D2629292F282629292926F4
:1003B00030484D4020380808080808080808382F39
:1003C00010C8ACBA2F102834FA00007B00000814C3
:1003D0002A142222142A14085500550055AA55AA99
:1003E00055AAFF55FF55FF000000FF00101010FF39
:1003F00000141414FF001010FF00FF1010F010F094
:10040000141414FC001414F700FF0000FF00FF1484
:1004100014F404FC141417101F10101F101F1414D0
:10042000141F00101010F0000000001F101010101A
:100430001F10101010F010000000FF10101010100E
:1004400010101010FF10000000FF140000FF00FF4C
:1004500000001F10170000FC04F4141417101714E8
:1004600014F404F40000FF00F7141414141414140A
:10047000F700F7141414171410101F101F1414147D
:10048000F4141010F010F000001F101F0000001FE7
:1004900014000000FC140000F010F01010FF10FF1A
:1004A000141414FF141010101F00000000F010FFAF
:1004B000FFFFFFFFF0F0F0F0F0FFFFFF0000000093
:1004C00000FFFF0F0F0F0F0F3844443844FC4A4A17
:1004D0004A347E02020606027E027E0263554941CC
:1004E000633844443C04407E201E2006027E020203
:1004F00099A5E7A5991C2A492A1C4C7201724C3017
:100500004A4D4D303048784830BC625A463D3E49ED
:100510004949007E0101017E2A2A2A2A2A44445F91
:10052000444440514A444040444A51400000FF0185
:1005300003E080FF000008086B6B08361236243693
:10054000060F090F060000181800000010100030F8
:1005500040FF0101001F01011E00191D1712003C80
:100560003C3C3C000000000004E010021C07123775
:1005700032292D29252B3900010310E110031D0715
:10058000062E2C292D2E2E373F0000021013800A34
:10059000298064022A040000007F2B040000009FD1
:1005A0000F0180961180FFB103012C2DB203012CA5
:1005B0002DB306012C2D012C2DB40107C003A2027E
:1005C00084C101C5C2020A00C3028A2AC4028AEE9B
:1005D000C5010E20003601C83A01050000000024C4
:1005E0000027002A000000000800020100000304A8
:1005F0000700000000000000000102040810204075
:1006000080010204081020010204081020000000EC
:1006100000250028002B0004040404040404040240
:1006200002020202020303030303030089160C1BE8
:1006300011241FBECFEFD8E0DEBFCDBF22E0A8E778
:10064000B1E001C01D92AF3EB207E1F711E0A0E0BA
:10065000B1E0E6E9FBE302C005900D92A837B107CF
:10066000D9F713E0C7E1D3E004C02197FE010E944F
:10067000A91BC631D107C9F70E946D170C94BE1D86
:100680000C94000090E0FC01EB51FA4F2491FC0126
:10069000E750FA4F3491FC01E95EF94FE491EE2303
:1006A000C9F0222339F0233001F1A8F4213019F1E7
:1006B000223029F1F0E0EE0FFF1FE35FF94FA59123
:1006C000B4918FB7F894EC91611126C030953E2318
:1006D0003C938FBF08952730A9F02830C9F024300B
:1006E00049F7809180008F7D03C0809180008F77D3
:1006F00080938000DFCF84B58F7784BDDBCF84B556
:100700008F7DFBCF8091B0008F778093B000D2CFE8
:100710008091B0008F7DF9CF3E2BDACFCF93DF935E
:1007200090E0FC01E750FA4F2491895E994FFC015B
:1007300084918823D1F090E0880F991FFC01E55245
:10074000FA4FA591B491FC01E35FF94FC591D491A3
:1007500061110EC09FB7F8948C91E22FE0958E2323
:100760008C932881E223E8839FBFDF91CF91089586
:100770008FB7F894EC91E22BEC938FBFF6CF3FB795
:10078000F8948091EC019091ED01A091EE01B0916F
:10079000EF0126B5A89B05C02F3F19F00196A11DBA
:1007A000B11D3FBFBA2FA92F982F8827BC01CD01BB
:1007B000620F711D811D911D42E0660F771F881F1A
:1007C000991F4A95D1F708958F929F92AF92BF9249
:1007D000CF92DF92EF92FF926B017C010E94BF03E8
:1007E0004B015C01C114D104E104F104B9F00E9491
:1007F000BF03681979098A099B09683E734081051E
:10080000910580F321E0C21AD108E108F10888EED1
:10081000880E83E0981EA11CB11CE4CFFF90EF90DE
:10082000DF90CF90BF90AF909F908F9008950895E4
:10083000AF92BF92CF92DF92EF92FF920F931F93EE
:10084000CF93DF936C017B018B01040F151FEB012C
:100850005E01AE18BF08C017D10759F06991D601E3
:10086000ED91FC910190F081E02DC6010995892B55
:1008700079F7C501DF91CF911F910F91FF90EF9014
:10088000DF90CF90BF90AF900895FC01538D448DC1
:10089000252F30E0842F90E0821B930B541710F02B
:1008A000CF96089501970895FC01918D828D981738
:1008B00061F0A28DAE0FBF2FB11D5D968C91928D10
:1008C0009F5F9F73928F90E008958FEF9FEF089541
:1008D0002FB7F8948091F0019091F101A091F2016D
:1008E000B091F3012FBF8093FC019093FD01A09381
:1008F000FE01B093FF0184EF91E00E94540497FF42
:1009000026C02FB7F8948091F0019091F101A09149
:10091000F201B091F3012FBF4091FC015091FD0114
:100920006091FE017091FF01841B950BA60BB70B24
:100930004091F8015091F9016091FA017091FB0129
:1009400084179507A607B707B0F28FEF9FEF0895BA
:10095000FC01918D828D981731F0828DE80FF11D89
:10096000858D90E008958FEF9FEF0895FC01918DA4
:10097000228D892F90E0805C9F4F821B91098F739D
:100980009927089584EF91E00E94B60421E0892B15
:1009900009F420E0822F089580E090E0892B29F06F
:1009A0000E94C20481110C9400000895FC01A48DE2
:1009B000A80FB92FB11DA35ABF4F2C91848D90E081
:1009C00001968F739927848FA689B7892C93A08964
:1009D000B1898C91837080648C93938D848D9813EE
:1009E00006C00288F389E02D80818F7D8083089581
:1009F000EF92FF920F931F93CF93DF93EC0181E06F
:100A0000888F9B8D8C8D98131AC0E889F989808115
:100A100085FF15C09FB7F894EE89FF896083E88948
:100A2000F98980818370806480839FBF81E090E03A
:100A3000DF91CF911F910F91FF90EF900895F62EC7
:100A40000B8D10E00F5F1F4F0F731127E02E8C8D61
:100A50008E110CC00FB607FCFACFE889F9898081A6
:100A600085FFF5CFCE010E94D604F1CFEB8DEC0FC0
:100A7000FD2FF11DE35AFF4FF0829FB7F8940B8FC3
:100A8000EA89FB8980818062CFCFCF93DF93EC012D
:100A9000888D8823B9F0AA89BB89E889F9898C9166
:100AA00085FD03C0808186FD0DC00FB607FCF7CF22
:100AB0008C9185FFF2CF808185FFEDCFCE010E9422
:100AC000D604E9CFDF91CF9108952091A001260FA0
:100AD0003327331F21323105ECF42091C401FC018E
:100AE00090E080E0243069F082E00895A091A001B8
:100AF0002191AC0140585E4FA40FB52FB11D2C932E
:100B00000196861798F38091A001680F6093A00169
:100B100080E0089581E0089508958FEF9FEF089594
:100B20008FEF9FEF08958091790190E091958195E5
:100B300091090895CF93DF93CB01EA01642F0E94BE
:100B40006505CE01DF91CF910895CF93DF931F927A
:100B5000CDB7DEB7698361E0CE0101960E946505DD
:100B600081E090E00F90DF91CF910895FC01A5A165
:100B7000B6A18C9192A589238C93A5A1B6A18C9145
:100B800091A5892B8C930895DC019396ED91FC91AE
:100B90009497908198968C91892380830895DC01A5
:100BA0009396ED91FC919497908197968C91892BD7
:100BB00080830895DC019196ED91FC91929790814C
:100BC00096968C91892380830895DC019196ED910E
:100BD000FC919297908195968C91892B80830895B2
:100BE000CF92DF92EF92FF921F93CF93DF93EC01AE
:100BF0006A017B018DA9811123C08F2D9927AA2716
:100C0000BB278EBD0DB407FEFDCFC701AA27BB27AA
:100C10008EBD0DB407FEFDCFBB27AF2D9E2D8D2DB4
:100C20008EBD0DB407FEFDCFCEBC0DB407FEFDCFCB
:100C3000DF91CF911F91FF90EF90DF90CF900895BB
:100C40008130B1F410E2CE01F7FE0FC00E94E5053D
:100C5000CE010E94CF05CE010E94C405CC0CDD1C44
:100C6000EE1CFF1C115079F7E3CF0E94DA05F0CF9C
:100C7000EF8DF8A18F2D9927AA27BB278083CE015E
:100C80000E94B605EF8DF8A1C701AA27BB27808374
:100C9000CE010E94B605EF8DF8A1BB27AF2D9E2D8A
:100CA0008D2D8083CE010E94B605EF8DF8A1C08204
:100CB000CE01DF91CF911F91FF90EF90DF90CF9009
:100CC0000C94B605FF920F931F93CF93DF93EC0123
:100CD0008B018DA981110EC01EBD0DB407FEFDCF85
:100CE0000EBD0DB407FEFDCFDF91CF911F910F9187
:100CF000FF9008958130B1F490E1F92ECE0117FFF5
:100D00000EC00E94E505CE010E94CF05CE010E94D3
:100D1000C405000F111FFA94F110F0CFE5CF0E9427
:100D2000DA05F1CFEF8DF8A11083CE010E94B60550
:100D3000EF8DF8A10083CE01DF91CF911F910F912C
:100D4000FF900C94B6050F931F93CF93DF93EC01A4
:100D5000162F8DA9811109C06EBD0DB407FEFDCF00
:100D6000DF91CF911F910F910895813099F408E0A0
:100D7000CE0117FF0CC00E94E505CE010E94CF05F1
:100D8000110FCE010E94C405015091F7E9CF0E94D6
:100D9000DA05F3CFEF8DF8A16083CE01DF91CF911B
:100DA0001F910F910C94B605CF93DF93EC01ED8D5D
:100DB000FE8D80819CA989238083CE010E94A30699
:100DC000ED8DFE8D80819BA9892B8083DF91CF9152
:100DD0000895FC0185A9811104C091A182A19CBD47
:100DE0008DBD08951F93CF93DF93EC01162FE881FB
:100DF000F9810284F385E02D0995112371F06DAD21
:100E0000CE010E94D406E881F9810688F789E02D99
:100E1000CE01DF91CF911F9109946EADF1CFAF92CA
:100E2000BF92CF92DF92EF92FF920F931F93CF93D7
:100E3000DF93EC0177FD38C08885998568177907BD
:100E40009CF557FD31C08A859B854817590764F585
:100E500069017A015B01E881F9810284F385E02D63
:100E6000CE010995E881F98102A4F3A5E02D01E006
:100E700010E021E030E0A701B501CE010995B601EF
:100E8000CE010E946206E881F9810688F789E02D8B
:100E9000CE01DF91CF911F910F91FF90EF90DF90E6
:100EA000CF90BF90AF900994DF91CF911F910F9198
:100EB000FF90EF90DF90CF90BF90AF9008958F920A
:100EC0009F92AF92BF92CF92DF92EF92FF920F93D9
:100ED0001F93CF93DF93EC0149015701E881F9811A
:100EE00002A4F3A5E02D09959401D8010E949A1B54
:100EF0006B017C01C114D104E104F10409F47DC04B
:100F00008DA9811115C081E0C81AD108E108F10846
:100F10008FEFC816D806E806F80609F46EC0BEBC06
:100F20000DB407FEFDCFAEBC0DB407FEFDCFEBCF79
:100F3000813099F581E0C81AD108E108F1088FEFF6
:100F4000C816D806E806F80609F457C00B2D18E0B5
:100F5000CE0107FF1CC00E94E505CE010E94CF050F
:100F6000CE010E94C405000F115091F70A2D18E020
:100F7000CE0107FF0FC00E94E505CE010E94CF05FC
:100F8000CE010E94C405000F115091F7D3CF0E94EB
:100F9000DA05E3CF0E94DA05F0CFBA1016C0CC0C08
:100FA000DD1CEE1CFF1CEF8DF8A1B08281E0C81A99
:100FB000D108E108F1088FEFC816D806E806F80650
:100FC000E1F0CE010E94B605F1CF81E0C81AD10848
:100FD000E108F1088FEFC816D806E806F80669F0B0
:100FE000EF8DF8A1B082CE010E94B605EF8DF8A179
:100FF000A082CE010E94B605E8CFDF91CF911F916C
:101000000F91FF90EF90DF90CF90BF90AF909F90A7
:101010008F9008958F929F92AF92BF92CF92DF925E
:10102000EF92FF920F931F93CF93DF935C014B01DD
:101030006A01E90177FD52C0DC0118968D919C91FF
:10104000681779070CF04AC0209709F447C037FFAA
:1010500007C0C9010196C80ED91ED195C195D10905
:10106000F50182859385C816D906C4F5A6014C0FF3
:101070005D1F9A012150310937FD30C0D7FE03C0F2
:10108000EA01D12CC12C281739071CF0EC01CC192E
:10109000DD09D501ED91FC910284F385E02DC501B8
:1010A000099578018E0121E030E0A601B401C50167
:1010B0000E945F07D501ED91FC910688F789E02D2C
:1010C000C501DF91CF911F910F91FF90EF90DF90BD
:1010D000CF90BF90AF909F908F900994DF91CF9168
:1010E0001F910F91FF90EF90DF90CF90BF90AF9046
:1010F0009F908F9008958F929F92AF92BF92CF92C0
:10110000DF92EF92FF920F931F93CF93DF935C01D7
:101110006B014A01E90157FD52C0DC011A968D911D
:101120009C91481759070CF04AC0209709F447C012
:1011300037FF07C0C9010196C80ED91ED195C195C8
:10114000D109F50180859185C816D906C4F5A60197
:101150004C0F5D1F9A012150310937FD30C0D7FE79
:1011600003C0EA01D12CC12C281739071CF0EC016F
:10117000CC19DD09D501ED91FC910284F385E02DB8
:10118000C5010995780101E010E09E01A401B601B6
:10119000C5010E945F07D501ED91FC910688F78992
:1011A000E02DC501DF91CF911F910F91FF90EF903E
:1011B000DF90CF90BF90AF909F908F900994DF9178
:1011C000CF911F910F91FF90EF90DF90CF90BF9044
:1011D000AF909F908F9008958F929F92AF92BF9201
:1011E000CF92DF92EF92FF920F931F93CF93DF93F3
:1011F0004C016B015A01E901209709F46CC00115FB
:10120000110509F468C037FF07C0C9010196C80E6F
:10121000D91ED195C195D109F401A085B185CA1611
:10122000DB060CF058C017FF07C0C8010196A80ED6
:10123000B91E119501951109F40182859385A816AF
:10124000B9060CF048C0F601EC0FFD1FAF0141508C
:10125000510957FD40C0B501600F711F9B0121501E
:10126000310937FD38C0D7FE03C0EF01D12CC12CA6
:10127000B7FE03C08B01B12CA12C4A175B071CF0F1
:10128000ED01CC19DD09281739071CF08C010A196A
:101290001B09D401ED91FC910284F385E02DC4017A
:1012A00009959E01A501B601C4010E945F07D40102
:1012B000ED91FC910688F789E02DC401DF91CF9173
:1012C0001F910F91FF90EF90DF90CF90BF90AF9064
:1012D0009F908F900994DF91CF911F910F91FF9074
:1012E000EF90DF90CF90BF90AF909F908F90089538
:1012F000EF92FF920F931F93CF93DF9377FD32C04E
:10130000DC011896ED91FC916E177F075CF52115B5
:10131000310541F137FF07C0F90131964E0F5F1FCC
:10132000319521953109DC011A96ED91FC914E170A
:101330005F07C4F4EA01C20FD31FDE011197B7FDA6
:1013400011C057FF03C09E0150E040E0AE17BF0739
:101350001CF09F01241B350B7801890121E030E04E
:101360000E945F07DF91CF911F910F91FF90EF9047
:101370000895EF92FF920F931F93CF93DF9357FD42
:1013800031C0DC011A96ED91FC914E175F0754F5C0
:101390002115310539F137FF07C0F90131966E0F7C
:1013A0007F1F319521953109DC011896ED91FC9153
:1013B0006E177F07BCF4EB01C20FD31FDE0111973C
:1013C000B7FD10C077FF03C09E0170E060E0AE176C
:1013D000BF071CF09F01261B370B780101E010E0CE
:1013E0000E945F07DF91CF911F910F91FF90EF90C7
:1013F00008958F929F92AF92BF92CF92DF92EF9219
:10140000FF920F931F93CF93DF934701211531056F
:1014100009F44BC00115110509F447C037FF07C097
:10142000F90131966E0F7F1F319521953109DC014D
:101430001896AD90BC906A157B05BCF517FF07C0E8
:10144000F80131964E0F5F1F119501951109DC01CE
:101450001A96ED91FC914E175F073CF56B01C20E99
:10146000D31EE6012197D7FD20C07A01E00EF11EC0
:10147000D7011197B7FD19C077FF03C0960170E03F
:1014800060E057FF03C0870150E040E0CA15DB056C
:101490001CF09501261B370BAE17BF071CF08F0100
:1014A000041B150B74010E945F07DF91CF911F9100
:1014B0000F91FF90EF90DF90CF90BF90AF909F90F3
:1014C0008F900895EF92FF920F931F93CF93DF9326
:1014D000EC0177FD22C08885998568177907ECF4BF
:1014E00057FD1BC08A859B8548175907B4F47901BD
:1014F000E881F98102A4F3A5E02D01E010E021E0EC
:1015000030E0CE010995B701CE01DF91CF911F9157
:101510000F91FF90EF900C946206DF91CF911F9195
:101520000F91FF90EF900895CF93DF93EC010E940D
:10153000E9068FA987FD06C0EB8DFC8D80819AA9F5
:1015400089238083DF91CF9108950895AF92BF9250
:10155000CF92DF92EF92FF920F931F93CF93DF937F
:10156000BC016F5F7F4FFC011491115008F47AC0E9
:10157000FB01D4917B01F2E0EF0EF11CFB013196EF
:101580000491C02FCF7784EA92E00E94E90680910F
:10159000DB0287FD09C0E091BF02F091C0028081AB
:1015A0009091D60289238083E091C102F091C2021A
:1015B00080819091D802892380836D2F84EA92E004
:1015C0000E94A306E091C102F091C2028081909135
:1015D000D702892B8083F701B12CA12CD0E0AC1667
:1015E000BD06F4F48091D9026F01823081F48091BC
:1015F000D402882361F0619171916F0184EA92E0D5
:101600000E946206EFEFAE1ABE0AF601E8CF8FEF36
:10161000C81AD80A649184EA92E00E94A306F2CF25
:101620008091DB0287FD09C0E091BF02F091C0020A
:1016300080819091D502892B8083B7016C0F7D1F2B
:1016400007FF93CFEB012196FB01649170E06F3FA0
:10165000710511F464EF71E090E080E00E94E40312
:10166000BE0183CFDF91CF911F910F91FF90EF903B
:10167000DF90CF90BF90AF9008950F931F93CF93BB
:10168000DF93EC018B010E94E9068FA987FD06C05C
:10169000EB8DFC8D80819AA989238083ED8DFE8D51
:1016A00080819CA98923808366E3CE010E94A306E2
:1016B000ED8DFE8D80819BA9892B80838DA9F801FA
:1016C000823091F06081CE010E94A3068FA987FD30
:1016D00006C0EB8DFC8D808199A9892B8083DF91D9
:1016E000CF911F910F91089588A9882359F36081A4
:1016F0007181CE010E946206E9CFFC0187A987FDB6
:1017000006C0A38DB48D9C9181A9892B8C930895DB
:101710000895FC016370668B8481958126813781F1
:10172000613039F0633029F09187808733872287D1
:101730000895318720879387828708952F923F925B
:101740004F925F926F927F928F929F92AF92BF92D1
:10175000CF92DF92EF92FF920F931F93CF93DF937D
:10176000CDB7DEB76A970FB6F894DEBF0FBECDBF18
:101770009A8F898F7A8369834A01D22E18870F83C3
:101780003701BC2CDC0159962D913C915A972115BB
:10179000310509F015C118968D919C91199768171C
:1017A00079070CF0D7C11A968D919C91481759076B
:1017B0000CF0D0C14C2C512CB6E0CB9E600D711DAD
:1017C00011247C876B87161617060CF0C3C1EA2D0F
:1017D000F0E0FA87E98793E0EE0FFF1F9A95E1F7B3
:1017E000F88BEF87CF01840F951F181619060CF0A0
:1017F000B1C1A98DBA8D58968C91811104C0BFEAF0
:10180000BD1508F4D394A98DBA8DED91FC91119773
:101810000284F385E02DCD010995B5E0DB9EC00182
:101820001124E981FA81FC83EB83312C212C9C016A
:1018300028593F4F388F2F8B4A2D50E05E8B4D8BB0
:10184000EF89F88DE20DF31D44919E828D82D12C9B
:10185000C12C69817A81620D731D7A8B698B842F0B
:1018600090E09C8B8B8BE98DFA8DA081B18140FF3C
:1018700082C0F1E0BF126FC0AF126DC01C96ED9137
:10188000FC912F813885A4014C0D5D1D69897A89F1
:10189000898D9A8D0995EB89FC89F595E7954E2FF1
:1018A0005FEFC51AD50A6D817E818D899E89680F8B
:1018B000791F7E836D8398E0C916D10481F6AFEF5E
:1018C0002A1A3A0AEB81FC81E40DF51DFC83EB83B7
:1018D000F5E02F16310409F0B3CF2F813885261596
:1018E0003705B9F0A98DBA8DED91FC91B1E0BB122D
:1018F00057C0AB1255C069817A816B5F7F4F0088FA
:10190000F189E02D830128E030E0A401898D9A8DD2
:101910000995A98DBA8DED91FC9111970688F789EB
:10192000E02DCD016A960FB6F894DEBF0FBECDBF95
:10193000DF91CF911F910F91FF90EF90DF90CF90AB
:10194000BF90AF909F908F907F906F905F904F90DF
:101950003F902F9009941E96ED91FC91EF80F884B2
:1019600009851A8592014D815E816B817C81898D0B
:101970009A8D099590CF2F8138852615370509F462
:101980008ACF31E0B31207C0A31205C01C96ED91B7
:10199000FC91930178CF1E96ED91FC917301E0CFFD
:1019A0006B857C85641975090684F785E02D7301C4
:1019B0000F8518899201A401898D9A8D0995A9CF67
:1019C000F90134969491329745915491D91AB7E020
:1019D000DB9E400D511D1124F901259134913C8B62
:1019E0002B8BFA0125903490FA013296749031963F
:1019F0003491398B329664903196449041E04C1585
:101A000018F04A1508F07FC0662D062C000C770BE5
:101A10007C836B83842D042C000C990B9E838D8317
:101A2000A98DBA8DED91FC9111970284F385E02D7B
:101A3000CD010995512CD12CC12CEA2DF0E0FA876B
:101A4000E9872B2D30E03C872B87A401440D511DE5
:101A500047FC5A95588F4F8B69817A81660D711DAD
:101A600067FC7A957E876D877989C71608F051CF14
:101A70002C2D30E04D815E81420F531FA985BA8520
:101A80004A9FC0014B9F900D5A9F900D1124FC015D
:101A9000E80DF91DF88BEF87852D612C4F89588D46
:101AA000420F531F5E8B4D8B671408F050C04424C7
:101AB0004394480E877041F4C1010196EB89FC897B
:101AC000E20DF31DD4901C01D7FE19C0A98DBA8D6B
:101AD000ED91FC91662D70E0B1E0BB1219C0AB1224
:101AE00017C02D853E85620F731F0484F585E02D98
:101AF0002F8138854D895E89898D9A8D0995DD0CF8
:101B00006394842DD1CF1E821D821C821B8288CFBC
:101B10004B815C81640F751FAB85BC856A9FC001DA
:101B20006B9F900D7A9F900D112469817A81680FC7
:101B3000791F0684F785E02DEF80F88409851A85E2
:101B40009D014F855889898D9A8D0995D8CF570C5D
:101B5000C3948ACF6A960FB6F894DEBF0FBECDBF8E
:101B6000DF91CF911F910F91FF90EF90DF90CF9079
:101B7000BF90AF909F908F907F906F905F904F90AD
:101B80003F902F9008958F929F92AF92CF92EF92B5
:101B9000FF920F931F93CF93DF93EC01262F898D34
:101BA0009A8D009709F051C06A30D1F41D861C86C9
:101BB0008D8948E0849F900111248E859F85820F36
:101BC000931F9F878E8781E090E0DF91CF911F91D7
:101BD0000F91FF90EF90CF90AF909F908F900895CE
:101BE0006D3089F3CC88AD888F898823C1F08C85CE
:101BF0009D8536E0C39E800D911D11244885598531
:101C00004817590764F44E855F851D861C8638E0A9
:101C1000A39EC0011124840F951F9F878E87EA8899
:101C2000FB88088919894E855F856C857D85CE0185
:101C30000E949E0B2C898C859D8546E0249F800DFB
:101C4000911D11249D878C87BECF6A3069F41D8653
:101C50001C86FC013896E4912D898E859F85E29F34
:101C6000800D911D1124ADCF6D3009F4ACCFFC0176
:101C700034963491631708F4A6CF3296E491E617B0
:101C800008F4A1CFFC01329685909490462F431B17
:101C9000342F47E0349F800C911C1124F4013296BC
:101CA00034913196E4913323A9F1EE2399F1CC8854
:101CB000F4013596E491AD884F89442301F10E2E4D
:101CC000000CFF0BE30FF11DCE9EA001CF9E500D27
:101CD00011246C857D85460F571F688579856417AB
:101CE00075076CF44E855F851D861C86FC01389651
:101CF000E491AE9E400D511D11245F874E87EA8806
:101D0000FB88088919894E855F856C857D85CE01A4
:101D10000E949E0BF4013496E4912C898C859D855C
:101D2000E29F800D911D11248DCF6F927F928F9233
:101D30009F92AF92BF92CF92DF92EF92FF920F935A
:101D40001F93CF93DF93EC016B015A0139014801D6
:101D5000E881F9810284F385E02D0995E881F98114
:101D60000288F389E02D87019301A501B601CE0118
:101D70000995A501480D591D41505109E881F98186
:101D80000288F389E02D9301B601CE010995E8811F
:101D9000F9810088F189E02D9401A501B601CE01F9
:101DA0000995C60CD71CB60161507109E881F9810B
:101DB0000088F189E02D9401A501CE010995E88103
:101DC000F9810688F789E02DCE01DF91CF911F912F
:101DD0000F91FF90EF90DF90CF90BF90AF909F90CA
:101DE0008F907F906F9009946F927F928F929F92C5
:101DF000AF92BF92CF92DF92EF92FF920F931F9319
:101E0000CF93DF935C01EB016A014901380187013F
:101E1000DC01ED91FC916217730719F564167506E4
:101E20002CF0962D872D3A01C92ED82E9601261911
:101E300037092F5F3F4F048CF58DE02DA301BE01C4
:101E4000C5010995DF91CF911F910F91FF90EF9000
:101E5000DF90CF90BF90AF909F908F907F906F90CA
:101E600008954615570591F42617370724F0892D54
:101E70004B01C22FD82F9E01281939092F5F3F4FE0
:101E8000068CF78DE02DA601B401DACF0284F3852C
:101E9000E02D0995D501ED91FC910488F589E02D9F
:101EA00083019401A601BE01C5010995D501ED91FB
:101EB000FC910688F789E02DC501DF91CF911F9134
:101EC0000F91FF90EF90DF90CF90BF90AF909F90D9
:101ED0008F907F906F900994EF92FF920F931F93D2
:101EE000DC011A960D911C911B9718962D913C912F
:101EF0001997ED91FC9100A0F1A1E02D7B0150E03C
:101F000040E070E060E009951F910F91FF90EF9025
:101F100008954F925F926F927F928F929F92AF92AD
:101F2000BF92CF92DF92EF92FF920F931F93CF93C6
:101F3000DF936C012B015A0139014801DC01ED915D
:101F4000FC910284F385E02D0995E201640C751C77
:101F5000D601ED91FC91C615D7055CF40088F18996
:101F6000E02D87019401A501BE01C60109952196C6
:101F7000EFCF0688F789E02DC601DF91CF911F9141
:101F80000F91FF90EF90DF90CF90BF90AF909F9018
:101F90008F907F906F905F904F9009948F929F9257
:101FA000AF92BF92CF92DF92EF92FF920F931F9367
:101FB000CF93DF93EC015B014A016901E881F9816C
:101FC0000284F385E02D099595012C0D3D1D2150CE
:101FD0003109E881F9810488F589E02D78018401CF
:101FE000A401B501CE010995E881F9810688F78938
:101FF000E02DCE01DF91CF911F910F91FF90EF90D7
:10200000DF90CF90BF90AF909F908F9009948F9268
:102010009F92AF92BF92CF92DF92EF92FF920F9377
:102020001F93CF93DF93EC015B014A0169017801B3
:10203000E881F9810284F385E02D0995C80CD91C4B
:10204000860101501109E881F9810488F589E02DA4
:102050009501A401B501CE010995E881F9810688B1
:10206000F789E02DCE01DF91CF911F910F91FF9065
:10207000EF90DF90CF90BF90AF909F908F9009949A
:10208000EF92FF920F931F93DC01ED91FC9100A062
:10209000F1A1E02D09951F910F91FF90EF90089508
:1020A0000F931F93DC01ED91FC91068CF78DE02DD1
:1020B00009951F910F9108950F931F93DC01ED91E6
:1020C000FC91048CF58DE02D09951F910F910895D9
:1020D000DC01ED91FC910084F185E02D09942F92B3
:1020E0003F924F925F926F927F928F929F92AF92A8
:1020F000BF92CF92DF92EF92FF920F931F93CF93F5
:10210000DF9300D000D000D0CDB7DEB73C016A012C
:102110003E832D83FC82EB825801A41AB50AB7FED8
:1021200003C0B194A194B1088D809E80861A970A4D
:1021300097FE03C09194819491088A149B045CF0EB
:10214000902F812F0D811E819D838E839C2D8D2D3F
:102150006B01692F782F0C151D055CF09D818E8118
:102160007E836D83692F782F902F812F8601C92E52
:10217000D82E1601201A310A2B012D813E81421AD8
:10218000530A57FE03C0519441945108710137FE20
:1021900003C03FEFE31AF30AF594E7948D819E8123
:1021A000861797075CF5A1E0B0E0BA83A983C01653
:1021B000D1064CF1D301ED91FC910484F585E02D1D
:1021C0002B813C81A8016D817E818A149B041CF0C7
:1021D0004D815E81B801C3010995E418F508F7FE49
:1021E0000AC02D813E8189819A81280F391F3E8343
:1021F0002D83E20CF31C0F5F1F4FD9CF2FEF3FEF62
:102200003A832983D4CF26960FB6F894DEBF0FBE4B
:10221000CDBFDF91CF911F910F91FF90EF90DF9095
:10222000CF90BF90AF909F908F907F906F905F9076
:102230004F903F902F900895CF93DF931F92CDB78B
:10224000DEB7FC0119826370668BDC01AD5BBF4FAA
:102250002C9130E011968C9190E0623031F0633037
:10226000C9F0613081F040EC498332AF21AF94AFC7
:1022700083AFBE016F5F7F4FCF010E943D0B0F9078
:10228000DF91CF91089540EA498334AF23AF92AFF5
:1022900081AFEFCF40E6F8CF8F929F92AF92BF927F
:1022A000CF92DF92EF92FF920F931F93CF93DF9322
:1022B000EC0189AD9AAD680F791F8BAD9CAD480FCD
:1022C000591F21503109260F371F4901B12CA12C6C
:1022D000CB01B0E0A0E0DC0199278827882A992A61
:1022E000AA2ABB2A680181E0C81AD108C40ED51EEB
:1022F000F12CE12C70E060E0BA0155274427C42A94
:10230000D52AE62AF72A6AE2CE010E94D406B50150
:10231000A401CE010E94F0056BE2CE010E94D4061A
:10232000B701A601CE010E94F0056CE2CE01DF915B
:10233000CF911F910F91FF90EF90DF90CF90BF90C2
:10234000AF909F908F900C94D406CF93DF931F9201
:10235000CDB7DEB7FC0119826370668BDC01AA5B26
:10236000BF4F8C91982F9B7FAF014C5B5F4F91309B
:1023700031F493E0623008F091E0DA019C939F0120
:102380002D5B3F4F623009F44CC0633009F45BC0F1
:10239000613069F1823021F098EC843009F046C058
:1023A00090EC99838130D1F480E890E09387828724
:1023B00091878087D9018C9190E092AF81AFDA014B
:1023C0008C9190E094AF83AFBE016F5F7F4FCF01E0
:1023D0000E943D0B0F90DF91CF910895843051F50D
:1023E00080EA90E09387828780E590E0E1CF8230B9
:1023F00019F098EA843071F590EA99838130B1F54B
:1024000080E890E09187808793878287D9018C91BB
:1024100090E094AF83AFDA018C9190E092AF81AFFE
:10242000D3CF823049F08430D9F298E0998381305B
:1024300009F4BACF8630A1F280EA90E093878287D0
:1024400080E890E0B5CF823019F098E6843011F43E
:1024500090E6D3CF9983813099F2863051F480EAA7
:1024600090E09187808780E590E0CECF8430B9F30B
:10247000F4CF80EA90E09187808780E890E0C4CF35
:1024800090E080E008957093B1026093B0025093A1
:10249000B3024093B2021092B7021092B6021092A9
:1024A000B5021092B4022093B8022093B90221E041
:1024B0002093BB02009769F0FC0101900020E9F72E
:1024C0003197AF01481B590BBC0184EA92E00C9490
:1024D00018040895FC0180819181009711F00C94FB
:1024E0004B1C089520919C0230919D02232B39F4BE
:1024F00021E0FC018081882361F020E00AC0BC015A
:1025000080919802909199020E949F1D21E0892B51
:10251000A1F7822F08950E94911DCF93DF93DC01D4
:102520001496ED91FC916E177F0728F54115510522
:1025300011F19F01261B370B4217530708F49A012C
:10254000DB01EC0188819981E21BF30BFD83EC83B5
:10255000AF01461B570B260F371FBC01620F731FBD
:102560008A0F9B1F0E94AF1DE881F9818C819D819C
:10257000E80FF91F1082DF91CF9108950F931F93F9
:10258000CF93DF93EC0188819981009759F02A81DC
:102590003B812617370730F081E0DF91CF911F9103
:1025A0000F9108958B016F5F7F4F0E94D41C00979D
:1025B00059F0998388831B830A832C813D81232BC7
:1025C00059F7FC011082E8CF80E0E7CFEF92FF924D
:1025D0000F931F93CF93DF93EC017B018A01BA0124
:1025E0000E94BE1228813981811114C02115310544
:1025F00019F0C9010E944B1C198218821D821C828D
:102600001B821A82CE01DF91CF911F910F91FF9013
:10261000EF9008951D830C83B701C9010E94A81D86
:10262000F1CFCF93DF93EC0182E0CE39D80771F080
:1026300060919E0270919F026115710559F0409161
:10264000A2025091A302CE010E94E612CE01DF91B8
:10265000CF91089588819981009711F00E944B1CB9
:10266000198218821D821C821B821A82EFCF1F934F
:10267000CF93DF9385ED8093BC0080917C01909196
:102680007D01A0917E01B0917F010796A11DB11D32
:1026900023E0B695A795979587952A95D1F7209130
:1026A000BC0024FD03C01092C40152C040917C01C3
:1026B00050917D0160917E0170917F01452B462BE9
:1026C000472B69F30097A105B10541F02AE22A954D
:1026D000F1F700C00197A109B109E1CF80917B0119
:1026E000C1E0C0937A01882399F1D091B80010918C
:1026F000BA008091BC008A7B8093BC0060E082E1DC
:102700000E94420360E083E10E9442031092C401F0
:10271000C093C6011092C50161E082E10E944203AC
:1027200061E083E10E9442038091B9008E7F809333
:10273000B9008091B9008D7F8093B90088E48093BF
:10274000B80085E48093BC001093BA00D093B80021
:10275000DF91CF911F910895CF92DF92EF92FF9278
:102760000F931F93CF93DF93EC016A017B01C11498
:10277000D104E104F10439F4C12C48E4D42E48EE2C
:10278000E42EFF24F394FE01FF96C082D182E28200
:10279000F38281E28DAF80E28EAF369610818FA9F1
:1027A00087FD07C061E00E948E0361E08FA90E944F
:1027B000420361E088AD0E948E0361E088AD0E9413
:1027C00042038DA9811182C040E052E16AE770E0C6
:1027D000C416D506E606F70640F476956795579534
:1027E00047958F5F8630A1F787E0212F2C702065F9
:1027F000982F9695922B99A3809581708AA3812F0B
:1028000090E0B0E0A0E08BA39CA3ADA3BEA31FB754
:10281000F89480917801811127C0E1E2F6E084917B
:10282000E3E0F6E09491E82FF0E0EE0FFF1FE552B1
:10283000FA4FA591B491EC91E92321F461E08AE08B
:102840000E94420361E08AE00E948E038CB58061A1
:102850008CBD8CB580648CBD61E08DE00E948E03E0
:1028600061E08BE00E948E03809178018F5F8093FE
:1028700078011FBF8EA987FD75C061E00E948E039D
:1028800061E08EA90E94420364E670E080E090E07F
:102890000E94E40360E08EA90E94420364E670E0B7
:1028A00080E090E00E94E40361E08EA90E94420370
:1028B00068EC70E080E090E0DF91CF911F910F9184
:1028C000FF90EF90DF90CF900C94E40307E116E0C7
:1028D000F12C8130B9F461E08AA50E948E0360E09A
:1028E0008AA50E94420361E08CA50E948E0360E0ED
:1028F0008CA50E9442038BA587FDBCCF60E00E949F
:102900008E03B8CFF8018491E82FF0E0EE0FFF1F9F
:10291000E35FF94F859194912F8D38A128173907DE
:1029200041F461E08F2D0E948E0360E08F2D0E94A4
:102930004203F3940F5F1F4FF4E1FF12E3CF61E016
:102940008EA50E948E0361E08EA50E9442038FA592
:1029500087FD90CF61E00E948E0361E08FA50E9409
:10296000420388CFDF91CF911F910F91FF90EF909D
:10297000DF90CF9008951F920F920FB60F921124FF
:102980002F933F938F939F93AF93BF938091F001C9
:102990009091F101A091F201B091F3013091EB011E
:1029A00023E0230F2D3758F50196A11DB11D20936B
:1029B000EB018093F0019093F101A093F201B093A9
:1029C000F3018091EC019091ED01A091EE01B091A5
:1029D000EF010196A11DB11D8093EC019093ED01D3
:1029E000A093EE01B093EF01BF91AF919F918F91B2
:1029F0003F912F910F900FBE0F901F90189526E8D2
:102A0000230F0296A11DB11DD2CF1F920F920FB6B8
:102A10000F9211242F933F934F935F936F937F9364
:102A20008F939F93AF93BF93EF93FF9384EF91E0C6
:102A30000E94D604FF91EF91BF91AF919F918F912A
:102A40007F916F915F914F913F912F910F900FBEAA
:102A50000F901F9018951F920F920FB60F9211248E
:102A60002F938F939F93EF93FF93E0910402F09144
:102A700005028081E0910A02F0910B0282FD1BC0E9
:102A8000908180910D028F5F8F7320910E028217CB
:102A900041F0E0910D02F0E0EC50FE4F958F8093F5
:102AA0000D02FF91EF919F918F912F910F900FBE8B
:102AB0000F901F9018958081F4CF1F920F920FB640
:102AC0000F9211242F933F934F935F936F937F93B4
:102AD0008F939F93AF93BF93EF93FF938091B90030
:102AE000887F803609F44AC0F0F5883209F4A5C021
:102AF00018F5803109F499C0B8F4882309F4F5C0B9
:102B0000883009F492C0FF91EF91BF91AF919F91EE
:102B10008F917F916F915F914F913F912F910F9086
:102B20000FBE0F901F901895883109F486C080322F
:102B300051F78093C30114C0803409F49BC040F462
:102B40008033B9F38833F9F68093C30185ECAEC0C6
:102B5000803509F483C0883509F494C0883499F627
:102B60000E943713D0CF883909F48AC038F58837E6
:102B700029F050F4883611F0803729F683E08093ED
:102B8000C4011092C20155C0883809F479C0803957
:102B900019F0803809F0B7CF8091C201803208F077
:102BA0006FC0E091C20181E08E0F8093C2018091DD
:102BB000BB00F0E0EE55FE4F80833BC0803B39F018
:102BC000D0F4803A09F477C0883A09F09CCF84E0C9
:102BD0008093C4011092A1011092A001F0E0E0E006
:102BE00009958091A00181110FC081E08093A0011F
:102BF0001092800109C0803C09F4A8CF883C09F4F8
:102C0000A5CF883B09F07FCFE091A10181E08E0F35
:102C10008093A101F0E0E058FE4F80818093BB00DB
:102C20009091A1018091A00129C08091E901809338
:102C3000BB0085EC8093BC0066CF9091E801809149
:102C4000E701981758F5E091E80181E08E0F809335
:102C5000E801F0E0E953FE4F8081E9CFE091E8011F
:102C600081E08E0F8093E8018091BB00F0E0E95392
:102C7000FE4F80839091E8018091E7019817C8F298
:102C800085E8D8CFE091E80181E08E0F8093E801DC
:102C90008091BB00F0E0E953FE4F80838091C60134
:102CA00081115ECF81E08093C50184EA8093BC00EE
:102CB0001092C40128CF85EC8093BC001092C4010F
:102CC0008091C201803230F4E091C201F0E0EE5513
:102CD000FE4F10826091C20170E082EA91E0F0E064
:102CE000E0E009951092C2010ECF1092C30138CFD7
:102CF000FC01118210821382128215821482FB0160
:102D000001900020E9F73197AF01461B570B0C9457
:102D1000E612E4EFF1E01382128288EE93E0A0E085
:102D2000B0E084839583A683B78380E191E09183AB
:102D3000808385EC90E09587848784EC90E097878A
:102D4000868780EC90E0918B808B81EC90E0938B78
:102D5000828B82EC90E0958B848B86EC90E0978B55
:102D6000868B118E128E138E148EA4EAB2E0139607
:102D70001C921E92129720E830E015963C932E93F9
:102D8000149780EA90E017969C938E931697199665
:102D90003C932E9318971B969C938E931A97569656
:102DA0001C9256971D961C921E921C971F961C9261
:102DB0001E921E9781E055968C93559754968C934E
:102DC00054972FEF3FEF53963C932E935297519683
:102DD0003C932E93509757968C93579758961C92E6
:102DE00058975A961C921E925997D5961C92D59731
:102DF00088E0D6968C93D6978AE0D7968C93D7970F
:102E000089E0D8968C93D897DA961C921E92D9971F
:102E1000DC961C921E92DB97DD961C92DD97DE9667
:102E20001C92DE971092E3021092E4021092E502E7
:102E30001092E60281E992E090969C938E935F97C0
:102E4000E0E2F6E0E491F0E0EE0FFF1FE35FF94F00
:102E5000859194915E969C938E935D97E2E0F6E067
:102E60008491D3968C93D397E1E2F6E0E491F0E07D
:102E7000EE0FFF1FE35FF94F259134915C963C9371
:102E80002E935B97E3E0F6E0E491D196EC93D19733
:102E9000E095D296EC93D297E82FE095D496EC93F8
:102EA000D4971092E7021092E8021092E90282E2AF
:102EB00091E08D939C936EE471E08EE992E00E9424
:102EC00078166FE571E088E992E00E9478166FE568
:102ED00071E082E992E00C947816CF93DF93CDB73E
:102EE000DEB728970FB6F894DEBF0FBECDBF78943B
:102EF00084B5826084BD84B5816084BD85B58260FF
:102F000085BD85B5816085BD80916E0081608093AF
:102F10006E00109281008091810082608093810018
:102F20008091810081608093810080918000816028
:102F3000809380008091B10084608093B100809183
:102F4000B00081608093B00080917A0084608093AB
:102F50007A0080917A00826080937A0080917A0072
:102F6000816080937A0080917A00806880937A00F3
:102F70001092C10040E050E0BA0184EA92E00E9461
:102F8000AC1380EA95E00E94A60A83E995E00E94CE
:102F9000A60A88E695E00E94A60A80EC8983BE0115
:102FA0006F5F7F4F84EA92E00E943D0B12E0109326
:102FB000EA0260E084EA92E00E94A5116FEF7FEFE1
:102FC00084EA92E00E946C0FE0910402F091050205
:102FD0001083E0910402F09105021082E09100025A
:102FE000F09101021082E0910202F091030280E16F
:102FF000808310920C02E0910802F091090286E0B1
:103000008083E0910602F0910702808180618083D5
:10301000E0910602F0910702808188608083E09150
:103020000602F0910702808180688083E0910602A9
:10303000F091070280818F7D80832AE030E044E1B7
:1030400050E06AE070E082E591E00E9443122AE0DD
:1030500030E044E150E061E470E084E591E00E94FA
:10306000431225E030E043E750E06AE070E086E597
:1030700091E00E94431225E030E043E750E062E334
:1030800070E088E591E00E94431225E030E043E7DC
:1030900050E06AE570E08AE591E00E94431224E680
:1030A000422E21E0522E3CE5C32E31E0D32E42E6E3
:1030B000A42E41E0B42E5AE6652E51E0752E60E64E
:1030C000862E61E0962E86E5E82E81E0F82E98E5C2
:1030D000292E91E0392E84EF91E00E94B604181653
:1030E00019060CF0FFC11A8219821C821B821E82F3
:1030F0001D8250E040E06FE571E0CE0101960E9434
:10310000E6120E94680497FD1BC08F8318860D810C
:103110001E810F5F1F4FB801CE0101960E94BE12A3
:10312000882379F329813A818D819E81BE01695F6F
:103130007F4F820F931F0E94A81D1E830D83E1CF36
:1031400080919E0290919F020097B9F169817A81E6
:103150006115710581F14091A0025091A1022D816C
:103160003E814217530738F10E94A81D8D819E8130
:103170009093A3028093A2021E821D82CE0101962B
:103180000E946A1280919E0290919F020091EA0132
:103190002091A2023091A302280F391FFC012E17A3
:1031A0003F0711F1009729F040814D3211F40E2FA5
:1031B000081B3196F4CF0E944B1C89819A81909311
:1031C0009F0280939E028B819C819093A1028093A9
:1031D000A0028D819E819093A3028093A2021A8205
:1031E00019821C821B82C8CF0093EA0188E992E011
:1031F0000E94111382E992E00E94111310E04FEF38
:103200005FEFB80188E992E00E948D12A8014F5F3C
:103210005F4F70E060E082E992E00E948D12809141
:103220009202909193020097A1F00E94181B6130C6
:10323000710599F4F0920501E092040130920301C6
:10324000209202018AE591E09093010180930001B0
:1032500022C060E070E0CB01EACF6230710559F422
:10326000F0920501E0920401D0920301C0920201A4
:103270008EE591E0E9CF6330710509F040C190928D
:10328000050180920401D0920301C0920201B09224
:103290000101A09200018CE691E00E947212882345
:1032A00009F47CC16FEF7FEF84EA92E00E946C0F1B
:1032B0002AE030E044E150E06AE070E082E591E02D
:1032C0000E9443122AE030E044E150E061E470E003
:1032D00084E591E00E94431225E030E043E750E0AE
:1032E0006AE070E080910401909105010E94431210
:1032F00025E030E043E750E062E370E080910201B6
:10330000909103010E94431225E030E043E750E032
:103310006AE570E080910001909101010E944312E2
:1033200082E791E00E9472128823F1F16FEF7FEF44
:1033300084EA92E00E946C0F2AE030E044E150E021
:103340006AE070E082E591E00E9443122AE030E0FA
:1033500044E150E061E470E088E691E00E944312AD
:1033600025E030E043E750E06AE070E0809104013E
:10337000909105010E94431225E030E043E750E0C0
:1033800062E370E080910201909103010E94431278
:1033900025E030E043E750E06AE570E0809100010D
:1033A000909101010E94431284E791E00E94721201
:1033B000882309F448C06FEF7FEF84EA92E00E940F
:1033C0006C0F27E030E044E150E064E070E082E51B
:1033D00091E00E94431227E030E044E150E06CE2CB
:1033E00070E082E591E00E94431227E030E044E182
:1033F00050E065E570E088E691E00E94431225E028
:1034000030E043E750E06AE070E080910401909181
:1034100005010E94431225E030E043E750E062E3FB
:1034200070E080910201909103010E94431225E017
:1034300030E043E750E06AE570E080910001909150
:1034400001010E94431286E791E00E9472128823D4
:1034500009F448C06FEF7FEF84EA92E00E946C0F9E
:103460002AE030E045E050E06AE070E08EE591E06F
:103470000E9443122AE030E045E050E061E470E051
:103480008EE591E00E9443122AE030E047E350E0ED
:1034900068E270E08EE591E00E94431225E030E0A2
:1034A00043E750E06AE070E08091040190910501EB
:1034B0000E94431225E030E043E750E062E370E011
:1034C00080910201909103010E94431225E030E0B7
:1034D00043E750E06AE570E08091000190910101BE
:1034E0000E94431280E090E0892B09F4F4CD0E9401
:1034F000C204882309F4E7CD0E940000E4CD6430C3
:10350000710569F45092050140920401F0920301A3
:10351000E0920201F0920101E0920001BCCE653020
:10352000710569F4B0920501A092040186E691E06C
:10353000909303018093020188E691E085CE663086
:10354000710569F490920501809204017092030163
:103550006092020150920101409200019CCE6730BE
:10356000710569F4D0920501C0920401B092030183
:10357000A092020170920101609200018CCE64362B
:10358000710509F088CE8EE591E090930501809356
:103590000401909303018093020156CE8EE691E0E0
:1035A0000E947212882369F06FEF7FEF84EA92E045
:1035B0000E946C0F2AE030E044E150E063E270E0EA
:1035C00087CE80E591E00E947212882379F06FEF38
:1035D0007FEF84EA92E00E946C0F2AE030E044E141
:1035E00050E063E270E08AE591E074CE80E791E01C
:1035F0000E947212882309F493CE6FEF7FEF84EA62
:1036000092E00E946C0F2AE030E044E150E063E277
:1036100070E088E691E05ECE82E992E00E946A1254
:1036200088E992E00E946A128EE992E00C946A1294
:103630001F93FC0199278827BC01E894119110324F
:10364000E9F3193010F01E30C8F31B3251F01D326F
:1036500049F4689406C00E943F1B610F711D811DD3
:10366000911D119110531A30B0F33EF4909580954E
:10367000709561957F4F8F4F9F4F1F910895592FE0
:10368000482F372F262F660F771F881F991F660F29
:10369000771F881F991F620F731F841F951F660F66
:1036A000771F881F991F08952F923F924F925F9224
:1036B0006F927F928F929F92AF92BF92CF92DF9242
:1036C000EF92FF920F931F93CF93DF93CDB7DEB7A7
:1036D000CA1BDB0B0FB6F894DEBF0FBECDBF09943B
:1036E0002A88398848885F846E847D848C849B8492
:1036F000AA84B984C884DF80EE80FD800C811B81A0
:10370000AA81B981CE0FD11D0FB6F894DEBF0FBECE
:10371000CDBFED010895A29FB001B39FC001A39F4B
:10372000700D811D1124911DB29F700D811D1124FA
:10373000911D08950E948B1B332312F48A1B9B0B4F
:103740000C94A41B0E948B1BB7FF0895821B930B44
:103750000895EE0FFF1F0590F491E02D09940F934B
:103760001F93CF93DF938230910510F482E090E0B5
:10377000E091ED02F091EE0230E020E0B0E0A0E058
:10378000309799F42115310509F44AC0281B390BEB
:1037900024303105D8F58A819B816115710589F145
:1037A000FB0193838283FE0111C04081518102811C
:1037B000138148175907E0F04817590799F41097F3
:1037C00061F012960C93129713961C933296CF01C8
:1037D000DF91CF911F910F9108950093ED02109307
:1037E000EE02F4CF2115310551F04217530738F09E
:1037F000A901DB019A01BD01DF01F801C1CFEF0191
:10380000F9CF9093EE028093ED02CDCFFE01E20F4F
:10381000F31F819391932250310939832883D7CFA5
:103820002091EB023091EC02232B41F4209108010E
:10383000309109013093EC022093EB0220910601B4
:10384000309107012115310541F42DB73EB7409164
:103850000A0150910B01241B350BE091EB02F09112
:10386000EC02E217F307A0F42E1B3F0B28173907D1
:1038700078F0AC014E5F5F4F2417350748F04E0FCC
:103880005F1F5093EC024093EB02819391939FCF83
:10389000F0E0E0E09CCFCF93DF930097E9F0FC01EC
:1038A000329713821282A091ED02B091EE02ED01E7
:1038B00030E020E01097A1F420813181820F931F26
:1038C0002091EB023091EC022817390709F061C012
:1038D000F093EC02E093EB02DF91CF910895EA01BF
:1038E000CE17DF07E8F54A815B819E01411551053E
:1038F000B1F7E901FB83EA8349915991C40FD51FC0
:10390000EC17FD0761F4808191810296840F951F69
:10391000E90199838883828193819B838A83F0E084
:10392000E0E012968D919C9113970097B9F52D9137
:103930003C911197CD010296820F931F2091EB02CB
:103940003091EC022817390739F6309751F510926B
:10395000EE021092ED02B093EC02A093EB02BCCF0A
:10396000D383C28340815181840F951FC817D90723
:1039700061F44E5F5F4F88819981480F591F5183D1
:1039800040838A819B81938382832115310509F0CD
:10399000B0CFF093EE02E093ED029ECFFD01DC018B
:1039A000C0CF13821282D7CFB0E0A0E0EAEDFCE1F5
:1039B0000C94561B8C01009751F4CB010E94AF1B55
:1039C0008C01C801CDB7DEB7E0E10C94721BFC019D
:1039D000E60FF71F9C0122503109E217F30708F4A4
:1039E0009DC0D901CD91DC911197C617D70798F0EA
:1039F000C530D10530F3CE0104978617970708F339
:103A0000C61BD70B2297C193D1936D937C93CF01A3
:103A10000E944B1CD6CF5B01AC1ABD0A4C018C0E28
:103A20009D1EA091ED02B091EE02512C412CF12C83
:103A3000E12C109731F58091EB029091EC02881502
:103A4000990509F05CC04616570608F058C08091E9
:103A5000060190910701009741F48DB79EB7409100
:103A60000A0150910B01841B950BE817F90708F028
:103A700055C0F093EC02E093EB02F901718360838F
:103A8000A0CF8D919C91119712966C9012971396DE
:103A90007C901397A815B90559F56C0142E0C40E46
:103AA000D11CCA14DB0420F1AC014A195B09DA010C
:103AB0001296159780F06282738251834083D901F8
:103AC0006D937C93E114F10471F0D7011396FC938C
:103AD000EE93129776CF22968C0F9D1FF90191835A
:103AE0008083F301EFCFF093EE02E093ED0269CF14
:103AF0004816590608F42C017D01D3019ACFCB0159
:103B00000E94AF1B7C01009749F0AE01B8010E94F2
:103B1000961DC8010E944B1C870153CF10E000E0A6
:103B200050CF81E090E0F8940C94BE1DFB01DC01C5
:103B300002C001900D9241505040D8F70895FB010A
:103B4000DC018D91019080190110D9F3990B089532
:103B5000FB01DC0101900D920020E1F70895FB01CB
:103B6000DC014150504048F001900D920020C9F70F
:103B700001C01D9241505040E0F7089513E0C7E1A5
:103B8000D3E004C0FE010E94A91B2196C831D107D1
:063B9000C9F7F894FFCF15
:103B96005E015E015E010000EF0280000000000091
:103BA600F804180445044505B6045404A8040000A6
:103BB6000000C30D1804401217040F07940A620A86
:103BC600F9097809B9096F107D0BA511F2060A08E3
:103BD6007B08EC086C0FF40E950EAC134C11312DCE
:103BE600310058005300480043004D004E002D00A0
:103BF600440047004B0049004C00410035003000AE
:083C06003200330034006500B8
:00000001FF
